S31508000000082C0024AD0200086919000841161008DA
S31508000010F1180008AD0300080D19100800000000CB
S315080000200000000000000000000000005D1A000843
S315080000301106000800000000F1161008091B000848
S31508000040C7020008C7020008C7020008C70200085E
S31508000050C7020008C7020008C7020008C70200084E
S31508000060C7020008C7020008C7020008C70200083E
S31508000070B10300081D021008C7020008C7020008DD
S31508000080C7020008C7020008C7020008C70200081E
S31508000090C7020008C7020008C7020008C70200080E
S315080000A0C7020008C7020008C7020008C7020008FE
S315080000B0C7020008C7020008C7020008C7020008EE
S315080000C0C7020008C7020008C7020008C7020008DE
S315080000D0C7020008851B0008C7020008C7020008F7
S315080000E0C7020008C702000800000000C70200088F
S315080000F0C7020008C7020008C7020008C7020008AE
S31508000100C7020008C7020008C7020008C70200089D
S31508000110C7020008C7020008C7020008C70200088D
S31508000120C7020008C7020008C7020008C70200087D
S31508000130C7020008C7020008C7020008C70200086D
S3150800014000000000000000000000000000000000A1
S31508000150C7020008C7020008C7020008C70200084D
S31508000160C7020008C7020008C7020008C70200083D
S31508000170C7020008C7020008C702000800000000FE
S31508000180C7020008C7020008C7020008C70200081D
S31508000190C7020008C7020008C7020008C70200080D
S315080001A0C7020008C7020008C7020008C7020008FD
S315080001B0C7020008C7020008C7020008C7020008ED
S315080001C0C7020008C7020008C7020008C7020008DD
S315080001D0C7020008C7020008C7020008C7020008CD
S315080001E0C7020008C7020008C7020008C7020008BD
S315080001F0C7020008C7020008C7020008C7020008AD
S31508000200C7020008C7020008C7020008C70200089C
S31508000210C7020008C7020008C7020008C70200088C
S31508000220C7020008C7020008C7020008000000004D
S31508000230C7020008C702000800000000C70200083D
S31508000240C7020008C7020008C7020008C70200085C
S31508000250C7020008C7020008C7020008C70200084C
S31508000260C7020008C7020008C7020008C70200083C
S31508000270C7020008C7020008C702000800000000FD
S31508000280C702000800000000C702000800000000BE
S3150800029000000000C7020008DFF80CD000F018F8CC
S315080002A000480047711E0008082C002406488047AD
S315080002B006480047FEE7FEE7FEE7FEE7FEE7FEE73D
S315080002C0FEE7FEE7FEE7FEE7E517100899020008D5
S315080002D0064C074D06E0E06840F0010394E8070085
S315080002E098471034AC42F6D3FFF7DAFF381F0008F8
S315080002F0581F0008084809210160012141600421AE
S3150800030081600021C1600161416101764176014643
S31508000310643800F039BA0000EC2700241F4808B5F5
S31508000320016841F020010160006801221C4904238C
S3150800033000F0200000901B4800F1080C01604FF403
S315080003408021416000218CE80E00017542758261AA
S315080003500177C0E90812816280F838201203026327
S3150800036080F839100321C16200F16CF800220D48AB
S31508000370114600F119F8FFF7BDFF0A4800F12EFAF9
S3150800038008480A2100F18EF90748016C41F010016E
S315080003900164016C41F00101016408BDD8440258AA
S315080003A0002102408827002400000240FEE70000E2
S315080003B01248016809050AD5816A0A03104901D459
S315080003C0012200E002220A604FF4006181600168A0
S315080003D0490502D54FF4806181600168890502D517
S315080003E04FF4007181600168C90502D54FF4807128
S315080003F081600448022100F169BA00000000024049
S31508000400200000240000025810B512490123026892
S3150800041054188C2CD1B20AD814220839B1FBF2F13F
S315080004200D4A02EB810202660B4A80320EE018245E
S315080004301039B1FBF4F1094C2244A82A00D8083136
S31508000440074A02EB81020266054A80328B40C0E900
S31508000450192310BDF8ABFDA700580258F0FBFDBFE5
S315080004600008024010B5017903684A1E072A14D805
S315080004700A4C23448C2B06D8094B03EB8101C16631
S315080004800749443105E0074B03EB8101C16605497D
S315080004904431016701219140416710BDF8ABFDA7C2
S315080004A0FC580258FC080240014610B500208B692A
S315080004B04FF0C0748A6A53B1B3F5005F15D072B1B4
S315080004C0012A0CD0022A0AD0032A09D104E01AB15B
S315080004D0012A06D0022A03D1C96AC90100D501201A
S315080004E010BDC96AA142FAD010BD002AF7D0012A68
S315080004F0F2D0022AF3D0032AF3D010BD2DE9F84F23
S315080005003A48016841F00101016000680026394D4A
S315080005104FF4806700F00100009035484FF40068FA
S315080005204FF4005928600920C5E9010605F10C00B9
S315080005304FF4807A4FF4403B80E8C00F0320C5E9AA
S315080005400960EE6228462E6300F030FC284C283CF1
S31508000550A06A40F48020A062A06A20F40020A0626D
S3150800056025482063254860632548A0636015E06236
S3150800057000220C20114600F00DFE0C2000F0FDFDB7
S3150800058005F5D670C564A86378351948183028600B
S315080005900A20C5E9010605F10C0080E8C00F032012
S315080005A0C5E90960EE6228462E6300F0FFFB206C61
S315080005B040F480202064206C20F400202064114838
S315080005C0A0641148E0641148206560156064002243
S315080005D00D20114600F0DEFD0D2000F0CEFD05F5DC
S315080005E0CC70C564A863BDE8F88F0000D8440258EB
S315080005F028000240782500244020024000000038E8
S31508000600400400384021024080080038B00F003806
S31508000610704700002DE9F0470546894600204FF04F
S31508000620800A2DED048BFF24024682420BDA05EB85
S31508000630C00105EBC203D1E90067D3E9008CC1E923
S31508000640008CC3E90067514603E0401A01EBD171FB
S3150800065049108142F9DD521CA2420844E5DB01211A
S315080006604FF4807001E008F1010100EBD070884674
S3150800067040100128F7D101267BE0701E0227B7EE4D
S31508000680008A874007EBD7704410DFED3D8A00EEFD
S31508000690104AB8EEC00ADFED3B9AC9EE800AB7EEFB
S315080006A0E00A01F099FAB7EEC09B00EE104AB8EEE0
S315080006B0C00AC9EE800AB7EEE00A01F151F9B7EEB1
S315080006C0C00B0022A4F1010AF1EE402A4EE01046C2
S315080006D03DE00319F0EE681A05EBC301B0EE481ABF
S315080006E091EC020AFFF0D4FD05EBC00C9CED001A54
S315080006F031EE401A81ED001A9CED011A31EE601AAE
S3150800070081ED011A9CED001A31EE000A8CED000A03
S315080007109CED010A30EE200A8CED010A91ED000AE3
S3150800072060EE000A91ED010A09EB830140EE000A2A
S31508000730C1ED000A9CED000A09EB8001384460EE21
S31508000740000A9CED010A40EE000AC1ED000AFF28E6
S31508000750BFDDF0EE621AB0EE491AF0EE680AB0EEA6
S31508000760480AFFF095FD521CB0EE408B5245AEDDAF
S31508000770761C464581DDBDEC048BBDE8F08700009C
S3150800078000000000D00F49402DE9F84F0023FC4C2B
S315080007904FF0804E9B46009390F85020012A28D0AF
S315080007A0012580F850500268966876077ED4D66987
S315080007B0AA460F78BD402E43D6614A681F254FF4D6
S315080007C0F868052A18D20668376B98FAA8FCBCFAA6
S315080007D08CFC02FB0CFC05FA0CF598FAA8FCAF4356
S315080007E00D68BCFA8CFC02FB0CF295402F4337636C
S315080007F049E00220BDE8F88F0A2A16D20668776B08
S3150800080098FAA8FC521FBCFA8CFC02FB0CFC05FAF1
S315080008100CF598FAA8FCAF430D68BCFA8CFC02FBF1
S315080008200CF295402F4377632DE006680F2A15D200
S31508000830B76B98FAA8FC0A3ABCFA8CFC02FB0CFCCB
S3150800084005FA0CF598FAA8FCAF430D68BCFA8CFCBF
S3150800085002FB0CF295402F43B76314E0F76B98FA46
S31508000860A8FC0F3ABCFA8CFC02FB0CFC05FA0CF54A
S3150800087098FAA8FCAF430D68BCFA8CFC02FB0CF294
S3150800088095402F43F763026895684FF038064FF096
S31508000890070915F00C0F7DD10D680A2D1BD3976932
S315080008A096FAA6FC0A3DBCFA8CFC00E0C9E105FBF9
S315080008B00CF809FA08FC96FAA6F827EA0C07D1F804
S315080008C008C0B8FA88F805FB08F50CFA05FC47EAEB
S315080008D00C07976117E0576996FAA6FCBCFA8CFCD8
S315080008E005FB0CF809FA08FC96FAA6F827EA0C079D
S315080008F0D1F808C0B8FA88F805FB08F50CFA05FC23
S3150800090047EA0C07576102684D69D7684FF0F84CFB
S31508000910C7F382077F00BD400F69012F4AD0022F17
S315080009206AD0032F7DD0042F7CD0156E9CFAACF8C4
S3150800093005F0F8470D68B8FA88F805FA08F5AF42E1
S3150800094003D1156E25F0004515660268556E9CFAAA
S31508000950ACF805F0F8470D68B8FA88F805FA08F50E
S31508000960AF4203D1556E25F0004555660268956E6F
S315080009709CFAACF80F68B8FA88F805F0F84507FA53
S3150800098008F7BD4203D1956E25F0004595660268C5
S31508000990D56E00E02FE09CFAACFC05F0F8470D6830
S315080009A0BCFA8CFC05FA0CF5AF4224D1D56E25F0BD
S315080009B0004589E0176E9CFAACFC07F000480F6802
S315080009C0BCFA8CFC07FA0CF72F4348EA0708C2F86A
S315080009D06080026815690F7E25F400653D43156140
S315080009E04A7E002A0268156E02D045F0004501E0ED
S315080009F025F00045156668E0576E9CFAACFC07F0D2
S31508000A0000480F68BCFA8CFC07FA0CF72F4348EA33
S31508000A100708C2F86480026815690F7E25F48055B8
S31508000A2001E00FE031E045EA470515614A7E002AF4
S31508000A300268556E02D045F0004501E025F00045F4
S31508000A40556642E0976E9CFAACFC07F000480F68C2
S31508000A50BCFA8CFC07FA0CF72F4348EA0708C2F8D9
S31508000A606880026815690F7E25F4005545EA8705F2
S31508000A7015614A7E002A0268956E02D045F0004547
S31508000A8001E025F0004595661FE0D76E9CFAACFCA0
S31508000A9007F000480F68BCFA8CFC07FA0CF72F43DE
S31508000AA048EA0708C2F86C80026815690F7E25F4C3
S31508000AB0804545EAC70515614A7E002A02683FF463
S31508000AC075AFD56E45F00045D5660268956805F0A0
S31508000AD00305012D02D11568ED0761D1CD6875456D
S31508000AE007D052F8C06F0F780AFA07F5AE431660BA
S31508000AF03CE052F8C07F91F800C00AFA0CF52F4383
S31508000B0017600A680568092A18D3AF6996FAA6FC19
S31508000B10093ABCFA8CFC96FAA6F602FB0CF8B6FA69
S31508000B2086F609FA08FC724327EA0C07D1F808C0CA
S31508000B300CFA02FC47EA0C07AF6117E06F6996FAF0
S31508000B40A6FC521CBCFA8CFC96FAA6F602FB0CF81C
S31508000B50B6FA86F609FA08FC724327EA0C07D1F8B2
S31508000B6008C00CFA02FC47EA0C076F61054E0568D7
S31508000B70054FB54201D0BD420AD1044A09E000003A
S31508000B800060025800200240002102400023024073
S31508000B90444A0968122904D0112907D013290AD012
S31508000BA054E0D2F808C04FEA0C2C08E0D2F808C086
S31508000BB04FEACC1C03E0D2F808C04FEA4C2CBCF133
S31508000BC0000F43DBD5F808C00CF0030CBCF1010F8D
S31508000BD004D1D5F800C05FEACC7C32D1B54210D139
S31508000BE0D6F8087107F00307012F03D1D6F800617C
S31508000BF0F60726D1A66806F00306012E2AD126682E
S31508000C001DE0BD42B76807F003070BD1012F02D1DB
S31508000C103768FF0715D1A76807F00307012F06D124
S31508000C20276802E0012F02D13768FF0709D1D6F8F5
S31508000C30087107F00307012F0CD1D6F80061F607F3
S31508000C4008D0416D41F020014165012380F850B07C
S31508000C501846CFE512290AD011291CD01329F5D137
S31508000C60A542F3D1916841F480019160EEE7A5426F
S31508000C70ECD1916841F4000191600B490B4A09686F
S31508000C80B1FBF2F1C1EB0111C90000E0491E009168
S31508000C900029FBD1DAE7A542D8D1916841F08071E5
S31508000CA0E3E70000006302580400002480841E0065
S31508000CB0174870B586B0016841F0200101600068E8
S31508000CC000F02000059012480830016841F0040140
S31508000CD00160006800F0040005900D48803801683E
S31508000CE021F4403141F4003101600120094E03240A
S31508000CF0694600258DE83100304600F029F90220C2
S31508000D0069468DE83100304600F022F906B070BD1C
S31508000D10D84402580008025810B528B190F8351082
S31508000D20022903D080214165012010BD1D4A4FF4D8
S31508000D30956301688C189C4207D8042280F83520F0
S31508000D40086820F00100086029E00C6824F00E0409
S31508000D500C6001680A440A6822F001020A60016E02
S31508000D600A6822F480720A6090F85C30012202FA5E
S31508000D7003F10D4B1960D0E919134B60C16E31B1FF
S31508000D800B6823F480730B60D0E91C134B600021B9
S31508000D9080F8341080F83520016D01B188470020AD
S31508000DA010BD0000F0FFFDBF045402582DE9F047BE
S31508000DB00446FFF095FD0646BCB15E49202720682B
S31508000DC000254FF0010A4FF0030842184FF040097A
S31508000DD00221B2F5956F50D884F8345084F835104E
S31508000DE0016821F00101016009E00120BDE8F087F2
S31508000DF0FFF076FD801B052801D9676579E0206834
S31508000E000068C007F4D121680A684B480240D4E953
S31508000E1002031843D4E9043633431843A369184335
S31508000E20E3691843236A18431043626A042A03D104
S31508000E30D4E90B231A43104308602068406920F060
S31508000E400701606A042840EA01060BD1A06A064336
S31508000E50E06A38B12046FFF727FB18B1C4F854906A
S31508000E60504647E0206846612046FFF0FDF994F8B1
S31508000E705C203F21914081602DE0304BC2188C2ABE
S31508000E8035D884F8345084F83510026847F6F0717E
S31508000E908A43A168402925D0802925D00021E66803
S31508000EA041EAD601266941EAD601666941EAD601D0
S31508000EB0A66941EAD601E66907EAD6063143266AF3
S31508000EC041EA161111430160206814211844B0FB49
S31508000ED0F1F08000E0652046FFF796FAA0688028C2
S31508000EE00BD00BE01021DAE74FF48041D7E7C4F8BE
S31508000EF05490404684F8350077E76560216E20797E
S31508000F000860D4E9190141606068401E072808D8BE
S31508000F102046FFF7A7FAE06E0560D4E91C01416098
S31508000F2002E0E56625676567656584F835A00020F3
S31508000F305CE70000F0FFFDBF3F8010FEF8ABFDA7A1
S31508000F400248016841F00101016070472004005819
S31508000F502DE9F84F6C4C00224FF0B04A4FF0010BC8
S31508000F604FF0030E4FF00F090B680BFA02F73B40E0
S31508000F70BB4270D14D68022D01D0122D12D1D50871
S31508000F8000EB850CDCF820605507ED0E09FA05F82C
S31508000F9026EA0806D1F8108008FA05F848EA06088D
S31508000FA0CCF82080D0F80080560091F804C00EFADC
S31508000FB006F50CF0030C28EA05080CFA06FC4CEAC0
S31508000FC0080CC0F800C0D1F804C0BCF1010F08D065
S31508000FD0BCF1020F05D0BCF1110F02D0BCF1120F03
S31508000FE016D1D0F808C0D1F80C802CEA050C08FAFE
S31508000FF006F848EA0C08C0F80880D0F804C02CEABD
S31508001000070C0F79C7F30017974047EA0C074760A4
S31508001010C768AF438D68B5403D43C5604D68ED0070
S315080010206BD53A4D2E6846F002062E602D6822F0E2
S31508001030030606F1B04605F002050095D6F808C481
S3150800104095072F0F09FA07F52CEA050C304DA8422B
S3150800105002D100252EE050E02E4DA84201D10125EF
S3150800106028E02D4DA84201D1022523E02B4DA842A8
S3150800107001D103251EE02A4DA84201D1042519E015
S31508001080284DA84201D1052514E0274DA84201D1D3
S3150800109006250FE0254DA84201D107250AE0244D73
S315080010A0A84201D1082505E0224DA84201D109250B
S315080010B000E00A25BD4045EA0C05C6F8085425682F
S315080010C04E689D43F60300D51D43256065684E6846
S315080010D09D43B60300D51D436560DAF800505646B1
S315080010E04F689D43FF0200D51D43356075684F68FC
S315080010F09D43BF0200D51D437560521C102AFFF49C
S3150800110033AFBDE8F88F000080000058F444025859
S31508001110000002580004025800080258000C025841
S31508001120001002580014025800180258001C0258F1
S315080011300020025800240258BFF35F8F0448016854
S3150800114021F480310160024900207031086070473F
S3150800115024ED00E0074940F00100086005487038B2
S31508001160016841F480310160BFF34F8FBFF36F8F81
S315080011707047000094ED00E07047002809DB012164
S3150800118000F01F0291404009800000F1E020C0F8FD
S31508001190001170470E4BF0B41B68C3F30223C3F16A
S315080011A00704042C00D904241D1D072D01D2002391
S315080011B000E0DB1E012606FA04F56D1E0D409D4073
S315080011C09E40761E164045EA0601F0BC00F1B7BB04
S315080011D00CED00E03548F0B50068364D10F03801E2
S315080011E0334809D00411082904D0334E10290BD0EE
S315080011F018290BD02046F0BD29688906FBD5296831
S31508001200C1F3C101C840F0BD3046F0BD27491831C9
S315080012100A68096812F00302284BC1F305111B6816
S31508001220274F03F001033F68DFED260AB7EE001AE1
S31508001230C7F3CC0717FB03F300EE103A224BB8EEC0
S31508001240400A06D0012A01D0022A2BD0B4FBF1F0BD
S3150800125008E02A68920603D52A68C2F3C102D0407C
S31508001260B0FBF1F001EE900A1868B8EE612AC0F3F7
S31508001270080001EE900A1868F8EE611A40EE201A86
S3150800128031EE810A22EE000AC0F34620401C00EE29
S31508001290900AF8EE600A80EE201ABCEEC10A10EE3B
S315080012A0100AF0BDB6FBF1F0DCE700001044025866
S315080012B00090D0030044025840787D012C4402581F
S315080012C03444025800000039304402582DE9F05FD2
S315080012D004460078DFF8FC8341F28839DFF8F8A382
S315080012E0FE4DC0074ED0D8F800104046C1F3C201E3
S315080012F002291AD00068C0F3C200032805D1DAF81B
S31508001300000000F0030002280FD06068B0F5803FA7
S3150800131012D010B1B0F5A02F19D0286820F480306B
S315080013202860286820F4802009E02868800329D5E9
S315080013306068002874D025E0286840F4803028606A
S31508001340606890B1FFF0CCFA06464F4609E0286877
S3150800135040F480202860EFE7FFF0C2FA801BB8420D
S315080013607DD828688003F7D50CE0FFF0B9FA064661
S315080013704F4604E0FFF0B4FA801BB842F0D828685C
S315080013808003F7D42078D64F80075AD5D8F80010AE
S3150800139040464FF47C3B11F0380F13D00068C0F379
S315080013A0C200032803D1DAF8000080070AD0E068F3
S315080013B0A8B3296821F0190101432960FFF090FAC2
S315080013C006461DE02868400702D5E0680028B1D027
S315080013D02868E16820F0190008432860FFF080FAC1
S315080013E0064604E0FFF07CFA801B0228B8D8286875
S315080013F04007F7D507E0FFF073FA801B0228AFD83D
S3150800140028684007F7D538689BFAABF220F47C3198
S315080014102069B2FA82F290400143396011E000E097
S31508001420AEE0286820F001002860FFF059FA064669
S3150800143004E0FFF055FA801B022891D82868400777
S31508001440F7D42078C00655D5D8F8001040464FF096
S31508001450F84BC1F3C201012917D0006800E0EDE09E
S31508001460C0F3C200032805D1DAF8000000F0030033
S3150800147001280AD0E069002828682CD040F08000AE
S315080014802860FFF02DFA064616E02868C00502D542
S31508001490E069802874D138689BFAABF220F0F841ED
S315080014A0206AB2FA82F290400143396022E0FFF0E6
S315080014B017FA801B022899D82868C005F7D5386816
S315080014C09BFAABF2216AB2FA82F220F0F840914018
S315080014D0084338600EE020F080002860FFF000FA2C
S315080014E0064604E0FFF0FCF9801B022887D8286826
S315080014F0C005F7D42078000724D5774F60694C37A4
S31508001500002838680FD040F001003860FFF0E8F98D
S31508001510064604E0FFF0E4F9801B02288DD83868F7
S315080015208007F7D50EE020F001003860FFF0D8F903
S31508001530064604E0FFF0D4F9801B02287ED83868F6
S315080015408007F7D42078800623D5A0690028286864
S315080015500FD040F480502860FFF0C2F9064604E038
S31508001560FFF0BEF9801B022868D828688004F7D5E2
S315080015700FE020F480502860FFF0B2F9064605E037
S31508001580D6E0FFF0ADF9801B022857D828688004FA
S31508001590F7D42078400744D5524F386840F4807015
S315080015A03860FFF09DF9064604E0FFF099F9801BC4
S315080015B0642843D83868C005F7D5474FA068483728
S315080015C001280AD008B1052811D0386820F0010092
S315080015D03860386820F0040002E0386840F00100FE
S315080015E03860A06888B1FFF07BF9064609E03868DC
S315080015F040F004003860F0E7FFF072F9811B4945B6
S315080016001CD838688007F7D50BE0FFF069F906465D
S3150800161004E0FFF065F9811B49450FD83868800753
S31508001620F7D4606AF0B3D8F80010C1F3C2010329F1
S315080016307ED00228286820F0807000E079E02860D3
S3150800164003D0FFF04DF9044687E0FFF049F9064656
S3150800165004E0FFF045F9801B02287BD82868800142
S31508001660F7D4DAF8001040F2F3329143E26A41EA1D
S315080016700211A26A1143CAF8001094F834004FF414
S31508001680FE02218E4002491EA0F5007080B2C1F309
S3150800169008010843218F491E02EA0141084394F8CC
S315080016A03C1000E05CE0491E120202EA01610843B0
S315080016B00949083108600B1D19684FF6F872A06CC5
S315080016C0914392FAA2F2B2FA82F29040014319606B
S315080016D0014809E0104402582844025800440258B8
S315080016E00444025800480258001D0168226C21F083
S315080016F00C01114301600168626C21F0020111437B
S315080017000160016841F480310160016841F40031EB
S315080017100160016841F480210160016841F001011E
S315080017200160286840F080702860FFF0D9F801E071
S3150800173018E00FE0044604E0FFF0D2F8001B022888
S3150800174008D828688001F7D50AE0FFF0C9F8001B19
S31508001750022802D90320BDE8F09F28688001F4D446
S315080017600020F8E70120F6E7401EB0F1807F10B5AB
S3150800177001D3012010BD4FF0E02460610F216017EE
S3150800178000F1DDF80020A06107202061002010BDCF
S3150800179090F87A30202B4CD1B9B1B2B190F87830A4
S315080017A0012B46D0012380F878304166A0F86820DE
S315080017B0A0F86A20FF228168B1F5805F07D07F23F1
S315080017C051B1B1F1805F0CD010E00120704701697A
S315080017D021B940F2FF1107E0016909BBA0F86C20A6
S315080017E004E00169E1B13F21A0F86C100021C1674E
S315080017F0222280F87A2080F8781001688A6842F0F8
S3150800180001028A6001680A6892000CD50A6842F4E7
S3150800181080720A600068816841F08051816006E044
S31508001820A0F86C30E2E7086840F490700860002081
S3150800183070470220704770472DE9FF41FFF77CFC8F
S3150800184001258DF80F504FF01050019012208DF899
S31508001850080000248DF80E5003268DF80B608DF8CD
S31508001860005068468DF80D408DF80A508DF80140F5
S315080018708DF809408DF80C40FFF06EF80F278DF8AB
S3150800188008708DF80F5070078DF80B608DF80E40B4
S315080018908DF800508DF80D408DF80A400190684685
S315080018A08DF801508DF809408DF80C40FFF054F87A
S315080018B08DF808704FF060508DF80F408DF80B606A
S315080018C08DF80E408DF80050019002208DF80D40DD
S315080018D08DF80A408DF8010068468DF809408DF8A4
S315080018E00C40FFF039F80420FFF734FCBDE8FF810F
S315080018F00F4800220221FEF0EDFF0EA000F064F969
S315080019004FF47A74204600F09AFA10A000F05CF9B9
S31508001910204600F094FABFF34F8F11480168114A28
S3150800192001F4E06111430160BFF34F8F00BFFDE78B
S31508001930000002584D656D20416363657373204549
S3150800194072726F7221210D0A00000000536F6674CF
S31508001950205265736574696E672E2E2E0D0A000077
S315080019600CED00E00400FA05704700002DE9F04789
S31508001970DFF8E48004460F464FF00009D8F8000067
S31508001980C043800709D0344D283D286820F0805090
S315080019902860FEF0A5FF064607E00120BDE8F087AF
S315080019A0FEF09EFF801B02284ED828688000F7D4D8
S315080019B0D8F80010228821F07C7141EA0251C8F853
S315080019C00010207A4FF4FE02A1884002491EA0F5B5
S315080019D0007080B2C1F308010843A189491E02EAD2
S315080019E001410843217C1202491E02EA01610843AB
S315080019F01949183108601848001D0168626921F400
S31508001A004061114301600168A26921F40071114324
S31508001A1001606FB10168012F0ED041F0807101603D
S31508001A20286840F080502860FEF05AFF04460DE012
S31508001A30016841F48001F2E741F40001EFE7FEF0A6
S31508001A404FFF001B022801D90320A7E7286880005A
S31508001A50F5D54846A2E7000028440258704700001A
S31508001A6070B5274C9CB0256825F004052560244CE4
S31508001A7000260C34256845F440452560256805F49C
S31508001A8040451B952568AD04FCD5012400940CAD92
S31508001A9003962404019402240994CDE90A41079681
S31508001AA0082485E80D00CDE910466846FFF70EFCC8
S31508001AB000B1FEE73F2013900320CDE9140640202D
S31508001AC00101CDE91640CDE9180150201A900221EE
S31508001AD013A8FFF0D5FB00B1FEE70A48016841F0FC
S31508001AE0800101600748F430016841F00201016095
S31508001AF0006800F002001B90FFF722FA1CB070BDC8
S31508001B000C48025800440258FEF0F0BE10B5B0F872
S31508001B106C2090F87A300168222B05D0088B40F0AB
S31508001B2008000883022010BD898C8368B3F5805F9E
S31508001B3001D103696BB11140426E531C43661170A3
S31508001B40B0F86A10491E0904090CA0F86A1007D0F3
S31508001B5015E0436E11401980416E891C4166EFE716
S31508001B6001680A6822F490720A6001688A6822F09D
S31508001B7001028A60202180F87A10FFF035FD0020E6
S31508001B8010BD000070B50D4D00240D48FFF06CFC2B
S31508001B9002E0641CAC4204D80948FFF05FFC202828
S31508001BA0F7D1002402E0641CAC4206D8054901229C
S31508001BB00348FFF7EDFD0028F5D170BDFFFF0100D2
S31508001BC0F82400240C000024014A024900F026B932
S31508001BD0151E10081000002410B529499FED261B74
S31508001BE02DED020B84B0059820F000408842D8BF3E
S31508001BF09DED040B2DDD2349884209D1049840B98F
S31508001C004FF0010000F004F900F0E6F806B010BD48
S31508001C1005DB9DED040B30EE000B06B010BD6846E3
S31508001C209DED040BFFF0F4FE10F0030004BF9DEDDC
S31508001C30021B9DED000B0CD001280ED09DED021B5A
S31508001C409DED000B022810D0012000F169F806B0BE
S31508001C5010BD00F019F806B010BD9DED021B9DEDF4
S31508001C60000B012000F15CF801E000F00DF806B069
S31508001C70B1EE400B10BD000000000000000000009F
S31508001C80FB21E93F0000F07F10B52DED040B2DED8B
S31508001C90068B82B0B0EE41AB09989FED299B20F0E8
S31508001CA00044B4F1795F0FDA9DED080BBDEEC00B69
S31508001CB010EE100A002801BFB0EE490B02B0BDECC9
S31508001CC0068B04B008BF10BD9DED080B1E48062103
S31508001CD020EE008BB0EE480B784400F045F820EE75
S31508001CE0080B9DED081B1C48844228EE000B01EEEC
S31508001CF04A0B9FED171B28EE011BBCBF31EE400BAC
S31508001D0039EE400B16DB1548A042BCBF9FED142BDD
S31508001D108DED002B06DBA4F5001001900020009045
S31508001D209DED002B31EE421B39EE422B31EE400B76
S31508001D3032EE400B02B0BDEC068B04B010BD0000BD
S31508001D40000000000000F03F2C0200000000000028
S31508001D50000000000000E03F3333D33F0000E93FB6
S31508001D60000000000000D23F491E00EBC102B0EEA1
S31508001D70401B92ED000B31F006020DD0491E00EB18
S31508001D80C102B0EE403B92ED002B31F00602B0EEF8
S31508001D90420B03EE010BF1D1022914D004290AD013
S31508001DA0062918BF704790ED0A2B00EE012B90ED1F
S31508001DB0080B02EE010B90ED062B00EE012B90EDC1
S31508001DC0040B02EE010B90ED022B00EE012B90EDB9
S31508001DD0000B02EE010B70479FED031B81EE010B12
S31508001DE0704700000000000000000000000000002E
S31508001DF002E008C8121F08C1002AFAD170477047C6
S31508001E00002001E001C1121F002AFBD17047000023
S31508001E1001490860704700002C0000242DE9F041B4
S31508001E2016460F460446002503E03946B047641CAB
S31508001E306D1C20780028F8D12846BDE8F08170B5D9
S31508001E40002405464FF47A7603E03046FFF0C8FFD3
S31508001E50641CAC42F9D370BD82B0CDE9000121F013
S31508001E60004001909DED000B02B051EC100B70473D
S31508001E70FFF7E2FCFEF08EF9FEF040FD0423022295
S31508001E800521A020FFF7ECFDFEF010FAFFF0DAFBC3
S31508001E90FFF016FCFEF732FBFEF740FA104C114D28
S31508001EA0114BA3F50062A2F50061A1F50060FEF0F2
S31508001EB031FA0E49A1F58050FEF7ACFB0B48FEF04F
S31508001EC003F92168012901DB012200E000222846E6
S31508001ED00221FEF0FFFC01212846FEF0F7FCDFE7B1
S31508001EE00000002400000258301800243020002486
S31508001EF000000000010203040102030406070809A2
S31508001F0000061016000610164C5555555555A53F92
S31508001F107751C1166CC156BF9015CB19A001FA3E70
S31508001F20AD529C804F7E92BEC4B1B4BD9EEE213E9A
S31508001F30D43888BEE9FAA8BD581F00080000002456
S31508001F4030000000F01D0008881F0008300000243B
S31508001F50D82B0000001E0008000000000090D003E7
S31508001F600000000000000000000000000100000062
S31508001F701000000000000000000000000000000043
S30D08001F8000000000000000004B
S3150810000070B504460068816801F00301012925D1FD
S315081000100168C90722D0816801F00D0101290FD1A5
S31508100020816841F00201816021680320086000F0B0
S3150810003057FC05460EE000F053FC401B022809D970
S31508100040606D40F010006065A06D40F00100A0657D
S31508100050012070BD20688068C007ECD1002070BDF3
S3150810006070B504460068816801F00301012902D1C0
S315081000700168C90723D18168124A114210D18168D3
S3150810008041F00101816000F02BFC054612E0816801
S3150810009041F00101816000F023FC401B022809D9B8
S315081000A0606D40F010006065A06D40F00100A0651D
S315081000B0012070BD20680168C943C907E7D100202F
S315081000C070BD00003F00008030B59FED2F0AADF5DA
S315081000D0787D00216C4680ED000A04EB8102491CEC
S315081000E0F82982ED000AF8DB0021B4EE001AF0EECA
S315081000F0081A002204EB81038D1893ED000A00EB11
S315081001008505521CD5ED000A092A30EE200A83ED22
S31508100110000AF1DB00EB8102491CD2ED040AF8292A
S3150810012030EE600A20EE010A20EE210A83ED000A5D
S31508100130DFDB164A182100EB810393ED000A04EB66
S31508100140810353ED040AB4EEE00AF1EE10FA03DD6A
S315081001505088401C508002E0491C1C29EBDB108893
S315081001600A2802D2401C10800AE053880020084949
S31508100170052B02D301230B6000E008601080508025
S315081001800DF5787D012030BD000000002800002400
S3150810019000000024F0B5BFF34F8FBFF36F8F1D49D2
S315081001A000200860BFF34F8FBFF36F8F1A4C21687A
S315081001B041F400312160BFF34F8FBFF36F8F16499B
S315081001C070310860BFF34F8F081F006843F6FF753C
S315081001D0104E1036C0F34E31C0F3C90305EA41126A
S315081001E0184642EA80773760401EFAD2491EF5D281
S315081001F0BFF34F8F206840F480302060BFF34F8FD5
S31508100200BFF36F8F03484C30016841F00401016059
S31508100210F0BD000050EF00E014ED00E01048016852
S3150810022089020AD5016C0A030E4901D4012200E09D
S3150810023002224A604FF4001181600168C90202D592
S315081002404FF4801181600168090302D54FF400212B
S3150810025081600168490302D54FF480218160704797
S31508100260000002402000002401681823CAB2103A80
S31508100270B2FBF3F2054B6FF30901032A9B5CC365C6
S3150810028000D9091D8165084670470000001F00083F
S3150810029020EE012A00EEE12A60EE211A40EE811ABC
S315081002A0B0EE420AF0EE610A70470000164870B5C3
S315081002B086B0016841F00401016000680324002536
S315081002C0124E00F004000590102069468DE83100A2
S315081002D0304600F73DFE202069468DE8310030464D
S315081002E000F736FE01200A4E8DE831006946304681
S315081002F000F72EFE022069468DE83100304600F7D9
S3150810030027FE06B070BD0000E044025800080258E7
S31508100310000402581C4900209FED1C1B9FED1D0B65
S315081003209FED1E3A4968012916D01D4B33F8101057
S3150810033002EE101A02EBC001401CB8EE422BFF2841
S3150810034022EE012B22EE002BB7EEC22B81ED002AEE
S3150810035081ED013AEADD7047124B33F8101002EEC0
S31508100360101A02EBC001401CB8EE422BFF2822EEF1
S31508100370012B22EE002BB7EEC22B81ED002A81ED60
S31508100380013AEADD704700002000002466666666BA
S3150810039066660A40000000000000F03E00000000FB
S315081003A0B00F0038800800382DE9F041044690F85F
S315081003B050000025164601280F460CD0012084F857
S315081003C050002046FFF71CFE0100606D2A4605D036
S315081003D040F0100031E00220BDE8F08120F488508A
S315081003E040F0020060652068836823F08043334339
S315081003F083602068836823F480333B4383602068D6
S31508100400836843F00043836020684FF47A460CE013
S315081004106D1CB54209D3606D20F0020040F0100043
S315081004206065012084F85020D6E78368002BEFDB3F
S31508100430606D20F0020040F001006065084684F8FF
S315081004405020C9E7F8B54FF0000504002E46009570
S3150810045002D0606D10B107E00120F8BD204600F704
S3150810046027FCA66584F8506020688168890003D542
S31508100470816821F00051816020688168C90010D414
S31508100480816841F0805181607D487E490068B0FBE3
S31508100490F1F000EB8000400000E0401E00900028BC
S315081004A0FBD120688168C90008D4616D41F010013C
S315081004B06165A16D41F00101A1650125616DC9064E
S315081004C07ED481684907FBD4616D41F002016165EC
S315081004D06D4A6E4E904201D0B04201D16C4900E08F
S315081004E06C49836803F00303012B02D10368DB0709
S315081004F039D1694B904210D1D2F8080100F00300A7
S31508100500012803D1D2F80001C0072CD1986800F051
S315081005100300012821D118681DE0B042906800F048
S3150810052003000BD1012802D11068C0071BD19868A7
S3150810053000F00300012806D1186802E0012802D14C
S315081005401068C0070FD1D2F8080100F0030001287F
S3150810055003D1D2F80001C00705D18868626820F473
S315081005607C1010438860A1684FF48033206B627D3D
S3150810057093FAA3F308434FF40051B3FA83F391FAAD
S31508100580A1F1B1FA81F18A40217F01FA03F31A43E6
S315081005901043012909D14FF46022216A92FAA2F276
S315081005A0491EB2FA82F291400843616A012903D0C2
S315081005B0A26A0AB1114308432168CA68374B00E09A
S315081005C056E01A400243CA602068816811F00C0F81
S315081005D028D14FF48042217D92FAA2F2B2FA82F221
S315081005E09140E26A1143C26844F203039A430A43EC
S315081005F0C26094F8390001281CD02068016921F0DE
S315081006000101016120680169626B21F07041114393
S31508100610016194F838000128206881681AD021F4FD
S3150810062080718160E06801282068016B21F00F0154
S3150810063013D015E0D4E91010A28F01230143A06C42
S3150810064003EB02421043014320680269144B1A4017
S315081006501143D6E741F48071E3E7A269521E1143AC
S315081006600163606D20F0020040F00100606504E04F
S31508100670606D40F01000606501252846F8BD000041
S315081006800400002480841E0000200240002102403D
S3150810069000230240006302580060025803C0F0FFAE
S315081006A01EF800FC2DE9F04704460069DFF81C9196
S315081006B0012608280F4622D020684946884202D0CB
S315081006C0434A90421DD1D1F80823D20619D0D1F841
S315081006D0082302F01F02052A13D0D1F8081301F0D7
S315081006E01F0109290DD03B488168C1F381310229C0
S315081006F00AD08068C0F38130032805D00BE008259E
S315081007000AE0C068C00706D0606D40F0200060653A
S315081007100120BDE8F087042500F0E2F8804611E0D4
S31508100720781C0FD02FB100F0DBF8A0EB0800B84208
S3150810073008D9606D40F004006065002084F8500008
S315081007400320E6E7206800682842E9D02068016897
S31508100750090700D400264946884224D01E4A9042EA
S3150810076021D0D1F80823D2061DD0D1F8082302F0DB
S315081007701F02052A17D0D1F8082302F01F02092AEA
S3150810078011D0C968082D10D04A0401D40422026079
S31508100790606D40F400706065B6B12068C06810F4EA
S315081007A0406F04D010E0C168ECE70822EFE7880430
S315081007B00AD4606D20F480706065606DC00403D43F
S315081007C0606D40F0010060650020A2E7002002403D
S315081007D000210240002302400060025870B504460A
S315081007E000688068400767D494F8500001280AD03A
S315081007F0012084F850002046FFF732FC01004FF024
S31508100800000202D045E0022070BD606DC00404D518
S31508100810A06D20F00600A06500E0A265606D40F6A8
S315081008200163984340F480706065254B20689842B0
S3150810083006D0244DA84203D0D3F80853ED0603D1A9
S31508100840656D25F4801565651C2505602068984238
S3150810085022D01D4DA8421FD0D3F80853ED061BD041
S31508100860D3F8085305F01F05052D15D0D3F80853EE
S3150810087005F01F05092D0FD0606D40F480106065D6
S31508100880D868800105D5606D20F4005040F480507A
S31508100890606584F8502010E0C3689B0105D5636D28
S315081008A023F4005343F48053636584F85020826818
S315081008B042F00402826000E00221084670BD000082
S315081008C000200240002102400060025842694A4056
S315081008D0426170470AB1018370474183704700002F
S315081008E00148806870470000140000240248816897
S315081008F0027811448160704714000024032010B553
S3150810090000F054F80F2000F007F808B1012010BDC8
S3150810091000F732FC002010BD70B50D4D04464FF49B
S315081009207A712878B1FBF0F00A490968B1FBF0F042
S3150810093000F71AFF48B9102C07D200222146501E7C
S3150810094000F728FC00206C6070BD012070BD000007
S315081009501400002404000024134A41781160111D64
S3150810096003780A1DE3B143680B60017BC37A090754
S3150810097041EA0361837A41EAC341437B41EA8341F1
S31508100980837B41EA4341C37B41EA0341437A41EA07
S315081009900321037A007841EA430101431160704745
S315081009A0002008601060704798ED00E0064A00F0D5
S315081009B0070110684FF6FF03184040EA0120034963
S315081009C008431060704700000CED00E00000FA05BF
S315081009D02DE9F84F0446006800252E46010104F15A
S315081009E02400FE4FDFF8F88300901DD5606E50B1D5
S315081009F0B0F5801F0CD0B0F5001F0ED0B0F5401F13
S31508100A001DD001250FE0386840F40030386016E034
S31508100A100221201D00F06EFE03E00098022100F767
S31508100A20A5FF05000BD02E462088C00523D5606D7E
S31508100A3005281ED2DFE800F00C11161B1B00D8F88B
S31508100A400010626E21F440111143C8F80010EBE74C
S31508100A50386840F40030386009E00021201D00F0A5
S31508100A6049FE03E00098002100F780FF05466DB1A6
S31508100A7000E001252E432088800528D5A06D802802
S31508100A801ED00CDC90B140280ED114E0D8F8001016
S31508100A90626D21F007011143C8F80010EBE7C02872
S31508100AA013D0B0F5807F10D001250FE0386840F4D8
S31508100AB00030386009E00021201D00F01BFE03E01D
S31508100AC00098002100F752FF054685B12E4320886D
S31508100AD0DFF8109340052CD5D4F8A400B0F5800F94
S31508100AE020D00DDCA0B1B0F5001F0FD115E0D8F855
S31508100AF00010A26D21F4E0711143C8F80010E6E762
S31508100B00B0F5C00F13D0B0F5000F10D001250FE0C7
S31508100B10386840F40030386009E00021201D00F0E4
S31508100B20E9FD03E00098002100F720FF054675B19E
S31508100B302E43208800052DD5D4F8A800B0F1007FE3
S31508100B4021D00EDCA8B1B0F1807F10D116E0D9F80B
S31508100B500010D4F8A42021F460011143C9F800103C
S31508100B60E7E7B0F1407F13D0B0F1806F10D00125C0
S31508100B700FE0386840F40030386009E00021201D85
S31508100B8000F0B8FD03E00098002100F7EFFE0546D7
S31508100B906DB12E43206880011FD5A06CD8B11028DE
S31508100BA00FD0202812D0302815D0012514E0D9F8F6
S31508100BB00010D4F8A82021F0E0611143C9F80010FC
S31508100BC0E8E7386840F40030386004E00221201D58
S31508100BD000F090FD05466DB12E432088C0042BD534
S31508100BE0E06DB0F5005F20D00DDCA0B1B0F5805FE8
S31508100BF00FD115E07A48001F0168A26C21F0300168
S31508100C0011430160E9E7B0F5405F13D0B0F5804FA6
S31508100C1010D001250FE0386840F40030386009E03C
S31508100C200021201D00F066FD03E00098002100F762
S31508100C309DFE054685B12E432088800429D5206E51
S31508100C40B0F5403F23D010DC08B3B0F5803F14D080
S31508100C50B0F5003F0FD115E0D8F80010E26D21F479
S31508100C60E0411143C8F80010E6E7B0F5802F0ED022
S31508100C70B0F5A02F0BD001250AE00121201D00F0A8
S31508100C8039FD03E00098012100F770FE05468DB185
S31508100C902E43208840042AD5D4F8AC00B0F1405F22
S31508100CA023D010DC08B3B0F1805F14D0B0F1005F28
S31508100CB00FD115E0D8F80010226E21F4E021114367
S31508100CC0C8F80010E5E7B0F1804F0ED0B0F1A04F8C
S31508100CD00BD001250AE00121201D00F00BFD03E0D1
S31508100CE00098012100F742FE05466DB12E43208873
S31508100CF000041FD5E06ED8B1B0F1805F0ED0B0F108
S31508100D00005F10D0012514E0D9F80010D4F8AC20F3
S31508100D1021F0E0411143C9F80010E8E7386840F4BB
S31508100D200030386004E00121201D00F0E3FC054680
S31508100D306DB12E432068C0011ED5606CD0B1012854
S31508100D400ED0022811D0032814D0012513E0D8F8A4
S31508100D500010E26E21F040511143C8F80010E9E77F
S31508100D60386840F40030386004E00221201D00F095
S31508100D70C1FC054675B12E432068DFF86CB04002F9
S31508100D805AD51A48016841F480710160FFF7A8FD29
S31508100D9082460EE01248001F0168626C21F00301BA
S31508100DA011430160E8E7FFF79BFDA0EB0A006428F2
S31508100DB03AD80E480068C005F5D5B5BB09481830AD
S31508100DC00068B4F8B01000F4407001F4407188421D
S31508100DD019D00448183001680AE000002C4402585B
S31508100DE050440258584402581044025800480258B1
S31508100DF0026821F4407142F480320260026822F4DB
S31508100E00803202600160D4F8B000B0F5807F22D13C
S31508100E10FFF766FD824609E0FFF762FDA0EB0A01BF
S31508100E2041F28830814201D9032504E0FE48006862
S31508100E308007F1D57DB12E432078DFF8F0A3C007DF
S31508100E403CD0A06F182837D025DC78B3082828D0CE
S31508100E50102824D12BE0D4F8B000C0F301210329BF
S31508100E600ED0DBF8001021F47C51CBF80010EE48B8
S31508100E700168B4F8B020C2F30B0211430160DBE736
S31508100E80DBF80020EA4B22F47C5203EA10100243E6
S31508100E90CBF80020EBE720280ED028280CD0012507
S31508100EA00BE00121201D00F025FC04E004E0009869
S31508100EB0012100F75BFD05465DB12E4320788007BA
S31508100EC01ED5606F062819D2DFE800F0160C111629
S31508100ED01616DAF80010A26F21F038011143CAF875
S31508100EE00010EBE70121201D00F004FC03E0009838
S31508100EF0012100F73BFD054675B100E001252E439B
S31508100F00207840071FD5D4F89000062819D2DFE8B4
S31508100F1000F0160C11161616DAF80010626F21F08A
S31508100F2007011143CAF80010EAE70121201D00F055
S31508100F30E1FB03E00098012100F718FD05469DB175
S31508100F4000E001252E43207880062BD5D4F88C0096
S31508100F50B0F1405F24D011DC10B3B0F1805F15D02A
S31508100F60B0F1005F10D116E0D9F80010D4F890202F
S31508100F7021F007011143C9F80010E4E7B0F1804FDA
S31508100F800ED0B0F1A04F0BD001250AE00021201D8C
S31508100F9000F0B0FB03E00098022100F7E7FC0546D5
S31508100FA08DB12E43207840062BD5D4F89800B0F58D
S31508100FB0406F24D011DC10B3B0F5806F15D0B0F5A2
S31508100FC0006F10D116E0DAF80010D4F88C2021F052
S31508100FD0E0411143CAF80010E4E7B0F5805F0ED07F
S31508100FE0B0F5A05F0BD001250AE00021201D00F006
S31508100FF081FB03E00098022100F7B8FC05468DB185
S315081010002E43207800062BD5D4F89C00B0F5C04F97
S3150810101024D011DC10B3B0F5005F15D0B0F5804FB1
S3150810102010D116E0D9F80010D4F8982021F4E05120
S315081010301143C9F80010E4E7B0F5004F0ED0B0F52B
S31508101040204F0BD001250AE00021201D00F052FB8D
S3150810105003E00098022100F789FC054665B32E4384
S31508101060207800070BD5D4F88000B0F5805F2DD016
S31508101070DAF8002022F440520243CAF800202078F9
S31508101080C0060BD5D4F89400B0F5807F24D0D9F8D3
S31508101090002022F440720243C9F800202068000399
S315081010A02CD5D4F8A000E8B1B0F5803F1FD0B0F524
S315081010B0003F21D0012520E0D9F80010D4F89C2053
S315081010C021F460411143C9F80010C9E700980221BC
S315081010D000F74CFC0643D2E70098022100F746FCBD
S315081010E00643DBE70021201D00F004FB03E000980F
S315081010F0022100F73BFC054685B12E4320684003C4
S3150810110022D5D4F88400B0F5801F11D0B0F5001F91
S3150810111013D0B0F5401F15D0012514E0D9F80010EA
S31508101120D4F8A02021F440311143C9F80010E5E79E
S31508101130386840F40030386004E00098012100F760
S3150810114015FC054655B12E432068C0031CD5E06C26
S3150810115070B1B0F5803F10D0012514E0DAF8001010
S31508101160D4F8842021F440111143CAF80010EBE793
S31508101170386840F40030386004E00221201D00F081
S31508101180B9FA0546C5B12E432068800004D50098E3
S31508101190022100F7EBFB0643206880031BD5E06F9E
S315081011A0B8B1B0F5807F10D0B0F5007F11D0B0F58A
S315081011B0407F0ED001250DE01C4808380168E26C06
S315081011C021F4803111430160DEE7386840F40030BD
S315081011D0386045B32E432068C00207D5D8F80000FA
S315081011E0226F20F000401043C8F800002068C000A5
S315081011F008D5DBF80010D4F8B42021F48041114347
S31508101200CBF800102068800207D5D8F80010A26E17
S3150810121021F080711143C8F800102068400014D5D9
S31508101220DBF8001006E01EE07044025854440258D9
S31508101230CFFFFF0021F40041CBF80010DBF80010B7
S31508101240D4F8B8201143CBF800102068002806DA25
S315081012500A480168226D21F04051114301605EB1C0
S315081012600120BDE8F88FDAF80010E26F21F440711A
S315081012701143CAF80010AEE70020F2E74C440258B2
S315081012802DE9F047DFF8BC9104460E46D9F8000060
S3150810129000F00700B0420CD2D9F8001021F007016F
S315081012A03143C9F80010D9F8000000F00700B04221
S315081012B07ED12078DFF89081800707D5D8F80010FE
S315081012C0E26821F00F011143C8F800102078C00712
S315081012D062D0D8F80010A26821F470611143C8F8DA
S315081012E0001059496068183902281CD003281DD0E7
S315081012F0096801281DD04907002960DA524F083FAE
S31508101300396821F0070101433960FFF7E9FA054604
S31508101310606841F28831022813D003281ED00128AC
S315081013208A4627D034E009688903E5E70968890100
S31508101330E2E7C905E0E7FFF7D3FA411B514501D9A2
S3150810134023E08A463868C0F3C2000228F3D123E0A6
S31508101350FFF7C6FA411B514501D916E08A46386887
S31508101360C0F3C2000328F3D116E0FFF7B9FA411B00
S3150810137051450AD83868C0F3C2000128F5D10BE0E8
S31508101380FFF7AEFA411B514502D90320BDE8F08795
S31508101390386810F0380FF3D1D9F80010484601F024
S315081013A00701B1420DD9016821F00701314300E068
S315081013B005E00160006800F00700B04201D0012086
S315081013C0E4E72078400707D5D8F80010226921F0FD
S315081013D070011143C8F80010207801071B4805D57D
S315081013E00168626921F07001114301602178C9060C
S315081013F005D50168A26921F4E061114301602078DE
S31508101400800607D51149091D0868E26920F07000A1
S3150810141010430860FFF6DEFED8F800104FF480720D
S3150810142092FAA2F201F47061B2FA82F2D140084A35
S31508101430515CC840074908600F20FFF76DFA002075
S31508101440A4E7000000200052184402581C44025811
S31508101450F01E0008040000247047704790F87910B1
S3150810146090F87A000843704770B502680446D06948
S315081014701368916810F00F0F64D0594D03F49076E5
S315081014800D40354376D0C50707D0DD0505D50125AE
S315081014901562E26F42F00102E267820708D5CA07B1
S315081014A006D0256802222A62E26F42F00402E26739
S315081014B0420708D5CA0706D0256804222A62E26FB1
S315081014C042F00202E26702070ED503F0200201F08D
S315081014D080552A4352EAC17206D0256808222A6224
S315081014E0E26F42F00802E267E26F002A3AD08006FD
S315081014F008D503F0200001F08051084302D0204699
S3150810150000F704FBE06F000703D4206880684006E4
S315081015102AD5204600F0B2F92068816849061ED5FA
S31508101520816821F040018160606FC0B12D49016565
S31508101530606FFFF6F1FB002814D0606F016DBDE8EF
S3150810154070400847850615D503F0200501F080562A
S3150810155035430FD02046BDE8704000F7D7BA20466D
S31508101560FFF77BFF70BD05E02046FFF776FF0020EA
S31508101570E067F7E7C6024FF020050CD54E020AD5EC
S31508101580E803106284F8795084F87A502046BDE84A
S315081015907040FFF761BF06060AD503F0800601F40E
S315081015A000010E4304D02046BDE8704000F074B91F
S315081015B041060BD5590609D51168204621F0400178
S315081015C0116084F8795000F736F9CBE70002C9D5CF
S315081015D05800C7D5106820F080401060C2E7000098
S315081015E0010000106918100830B5006811498842C2
S315081015F00CD1114A5088010408D411464FF0000343
S315081016004404097806D50A2901D0538030BD40F420
S3150810161000400DE00D2909D0084DC0F30D04401CFB
S3150810162080B2C72829555080EFD830BD40F4804085
S31508101630508030BD001001400C00002430240024D6
S31508101640FEE700001C4870B586B0016841F001013C
S315081016500160006801240325184E00F0010005906A
S3150810166002206946CDE90004CDE902453046FFF669
S315081016706FFCCDE902456946304600940194FFF6A1
S3150810168067FC04206946CDE90004CDE902453046D9
S31508101690FFF65EFC012230460221FFF71BF90122F4
S315081016A030461146FFF716F9002230460421FFF797
S315081016B011F906B070BD0000E04402580000025847
S315081016C00A484FF400210160192141604FF4FC715A
S315081016D081600721C1600161416100218161C16199
S315081016E00162C0F8A010FFF773B90000682600243D
S315081016F0704700002DE9F047DFF8E48004460F46EE
S315081017004FF00009D8F80000C043800709D0344DBF
S31508101710283D286820F080602860FFF7E1F8064623
S3150810172007E00120BDE8F087FFF7DAF8801B0228EA
S315081017304ED828680001F7D4D8F80010226821F48A
S315081017407C3141EA0231C8F80010207A4FF4FE02C3
S31508101750A1884002491EA0F5007080B2C1F30801A5
S315081017600843A189491E02EA01410843217C120255
S31508101770491E02EA016108431949103108601848E0
S31508101780001D0168626921F0C001114301600168FA
S31508101790A26921F02001114301606FB10168012F80
S315081017A00ED041F400110160286840F0806028606E
S315081017B0FFF796F804460DE0016841F40021F2E7B8
S315081017C041F48011EFE7FFF78BF8001B022801D9C7
S315081017D00320A7E728680001F5D54846A2E70000C8
S315081017E0284402581C48016841F4700101601B49DD
S315081017F0086840F001000860184A0020103210608E
S315081018000A68174B1A400A60144A18321060121DDB
S315081018101060121D1060114A28321060121D1060D7
S31508101820121D1060121D1060121D1060121D10601E
S31508101830121D1060121D10600A6822F480220A60B8
S3150810184006496031086001200649C1F80801C0063A
S31508101850014980390860704788ED00E00044025855
S315081018607FEDF6EA0080005110B5806B0021A0F8D4
S315081018706A10A0F86210FFF7F0FD10BD01680A683B
S3150810188022F490720A6001688A6822F001028A605E
S31508101890202180F87A10704790F87910212901D004
S315081018A002207047B0F8621021B18168B1F5805FE7
S315081018B013D014E001680A68920004D58A6822F4E5
S315081018C000028A6003E00A6822F080020A60006853
S315081018D0016841F0400101600CE0016961B1C16D18
S315081018E04A1CC265026809781185B0F86210491E4B
S315081018F0A0F8621000207047C16D02680988C1F30C
S3150810190008011185C16D891CC165EEE7FEE703B4B0
S3150810191001984100009850EAC12018BF04204A0DCA
S3150810192018BF40F0010040F2FF72B2EB515F08BFDA
S3150810193040F00200012808BF052002B070470907C9
S31508101940090E002804DB00F1E02080F80014704727
S3150810195000F00F0000F1E02080F8141D7047000019
S3150810196010B529499FED261B2DED020B84B005985D
S3150810197020F000408842DCBF00209DED040B2EDDD0
S315081019802249884209D1049840B94FF0010000F75E
S315081019903FFA00F721FA06B010BD05DB9DED040BE2
S315081019A030EE000B06B010BD68469DED040B00F036
S315081019B02FF810F003000DD0012814D09DED021B4E
S315081019C09DED000B022816D000F75EF906B0B1EEB1
S315081019D0400B10BD9DED021B9DED000B012000F084
S315081019E09FF906B010BD9DED021B9DED000B00F78B
S315081019F04BF906B010BD012000F092F9E6E7000099
S31508101A000000000000000000FB21E93F0000F07F05
S31508101A102DE9F14F04462DED020B2DED048B94B0F4
S31508101A209FED9D0B80ED020B199E9D4826F00045F3
S31508101A3085420ADC9DED180B002084ED000B14B0CE
S31508101A40BDEC048B03B0BDE8F08F96489FED969BCE
S31508101A509FED978BA84225DD97489FED991B9FED23
S31508101A609A2B9DED180B002E0DDD30EE490B854295
S31508101A7012BF30EE480B30EE410B30EE420B84EDC0
S31508101A80000B0120DBE730EE090B854212BF30EE62
S31508101A90080B30EE010B30EE020B84ED000B4FF005
S31508101AA0FF30CCE78A48A84253DB9DED180B51EC62
S31508101AB0100B00F7D1F941EC100BB0EE401B9FED5F
S31508101AC0862B9FED870B290DDFF81CC201EE020B42
S31508101AD00120FDEEC00B10EE903A00EE903AB8EEEB
S31508101AE0E02BB0EE410B02EE490B22EE081BFC442C
S31508101AF0032830EE411B84ED001B1DD011EE902AF1
S31508101B0000EB4015113DC2F30A528A1A954213DAB0
S31508101B100CEB0012B0EE403B92ED000B401C20EE91
S31508101B20021B33EE410B33EE403B33EE411B92ED75
S31508101B30023B12EE031BDBE7002EA8BF1846BFF6C2
S31508101B407EAF94ED000B5842B1EE400B84ED000BBE
S31508101B5075E7C6F3130040F4801EC6F30A50A0F2C8
S31508101B60F530471100F01F05C5F12000DDF860B00B
S31508101B70139000200890099005200DF1080C5B4978
S31508101B80002D07EB0002794408BF51F8221009D03E
S31508101B9051F8223001EB8201AB404A68139922FAB8
S31508101BA001F11943A1FB0E26A1FB0B131A449A4205
S31508101BB034BF0123002303EB06080CEB8003D3E99B
S31508101BC001A60E448E4234BF0121002192448A4454
S31508101BD011B1924502D903E0924501D2012100E0E4
S31508101BE00021C3E901A641444CF82010011EA0F1BA
S31508101BF00100C4DC04989DED050A00F10050810F20
S31508101C0004989FED3B4B800001EE100ADDED060AA5
S31508101C109DED072AB8EEC13BB8EE401BB8EE600B37
S31508101C20B8EE422B002021EE041B9FED334B20EE1D
S31508101C30040B9FED334B22EE042B30EE024B34EEA1
S31508101C40014B34EE034B8DED004B00909DED004B90
S31508101C50199834EE433B10F0004F33EE411B31EE2A
S31508101C60400B32EE401B9DED000B9FED272B20EE0F
S31508101C70020B9FED272B01EE020B9DED001B9FED2E
S31508101C80262B01EE020B1CBF4942B1EE400B84ED28
S31508101C90000B0846D3E60000000000000000000014
S31508101CA0FB21E93F7CD9024000004054FB21F93F53
S31508101CB03163621A61B4D03DFB21F93F0000000080
S31508101CC00000601A61B4D03D7370032E8A19A33BC5
S31508101CD0FB2139410000000083C8C96D305FE43F1D
S31508101CE0000000000000E03F36030000CE020000AE
S31508101CF0000000000000103E000000000000103C2C
S31508101D00000000000000103A3326A611460B113CBD
S31508101D10182D4454FB21F93D00000054FB21F93DD0
S31508101D2031B504462DED040B2DED068BB0EE419B17
S31508101D3007989DED060B20F00040B0F1795F0DDA9B
S31508101D4051EC100BFFF7E3FD042808BF00F03CF830
S31508101D509DED060BBDEC068B05B030BD20EE008B55
S31508101D601348052128EE00ABB0EE480B7844FFF671
S31508101D70FBFF9FED111B8CB19FED112B29EE022B4A
S31508101D800AEE402B9DED060B18EE029B0AEE419BC0
S31508101D9030EE490BBDEC068B05B030BD08EE001BC6
S31508101DA09DED060B0AEE010BBDEC068B05B030BD9A
S31508101DB08001000000000000495555555555C5BF0E
S31508101DC0000000000000E03F9FED030B20EE000B23
S31508101DD0704700000000000000000000000000101E
S31508101DE070B54FF0E02500216C69094AAB69126895
S31508101DF05043AA699A42FCD002D2A3EB020302E02E
S31508101E00A4EB02063344194413468142F1D370BD3C
S31508101E10080000240349CA695206FCD5C2B20A85CD
S31508101E20704700000010014000004054FB21F93FA4
S31508101E303163621A61B4D03D0000601A61B4D03DB6
S31508101E407370032E8A19A33B0000002E8A19A33B30
S31508101E50C14920259A837B39000000000000000044
S31508101E606E83F9A22915444ED15727FCC0DD34F5E7
S31508101E70999562DB4190433CAB6351FE61C5BBDE6D
S31508101E803A6E24B7E0D24D42EA2E49061C92D10981
S31508101E901CEB1DFE3EA729B1F53582E88444BB2EFE
S31508101EA026709CE9417E5FB439D69139F43953834B
S31508101EB08B5F849C3B28F9BDFF97F81F0F9805DEAA
S31508101EC08B112FEF1F6D0A5ACF7E366DB709CB27A8
S31508101ED0663F464F2DEA5F9EC7BA27757BF1E5EB3D
S31508101EE0F739073DEA92528AB15FFB6B085D8D1F81
S31508101EF0A6F810111111813FD561C119A0012ABF89
S31508101F007DFEB157E31DC73EEB9C2B8AE6E55ABE0C
S30D08101F107CD5CF5A3AD9E53DFC
S7050800029957
