:020000040800F2
:10000000580B002499030008158300088349000851
:10001000A5030008190B0008BD97000800000000A8
:1000200000000000000000000000000095870008AC
:10003000390B0008000000001783000891880008B1
:10004000B3030008B3030008B3030008B3030008B8
:10005000B3030008B3030008B3030008B3030008A8
:10006000B3030008B3030008B3030008B303000898
:10007000B3030008B3030008B3030008B303000888
:10008000B3030008B3030008B3030008B303000878
:10009000B3030008B3030008B3030008B303000868
:1000A000B3030008B3030008B3030008B303000858
:1000B000B3030008B30300082D890008B303000848
:1000C000B3030008B3030008B3030008B303000838
:1000D000B30300086D970008B3030008B3030008DA
:1000E000B3030008B303000800000000B3030008D6
:1000F000B3030008B3030008B3030008B303000808
:10010000B3030008B3030008B3030008B3030008F7
:10011000B3030008B3030008B3030008B3030008E7
:10012000B3030008B3030008B3030008B3030008D7
:10013000B3030008B3030008B3030008B3030008C7
:1001400000000000000000000000000000000000AF
:10015000B3030008B3030008B3030008B3030008A7
:10016000B3030008B3030008B3030008B303000897
:10017000B3030008B3030008B30300080000000045
:10018000B3030008B3030008B3030008B303000877
:10019000B3030008B3030008B3030008B303000867
:1001A000B3030008B3030008B3030008B303000857
:1001B000B3030008B3030008B3030008B303000847
:1001C000B3030008B3030008B3030008B303000837
:1001D000B3030008B3030008B3030008B303000827
:1001E000B3030008B3030008B3030008B303000817
:1001F000B3030008B3030008B3030008B303000807
:10020000B3030008B3030008B3030008B3030008F6
:10021000B3030008B3030008B3030008B3030008E6
:10022000B3030008B3030008B30300080000000094
:10023000B3030008B303000800000000B303000884
:10024000B3030008B3030008B3030008B3030008B6
:10025000B3030008B3030008B3030008B3030008A6
:10026000B3030008B3030008B3030008B303000896
:10027000B3030008B3030008B30300080000000044
:10028000B303000800000000B303000800000000F2
:1002900000000000B303000800F002F800F06DF861
:1002A0000AA090E8000C82448344AAF10107DA45D1
:1002B00001D100F062F8AFF2090EBAE80F0013F0B6
:1002C000010F18BFFB1A43F001031847D0F10000DB
:1002D000F0F100000A444FF0000C10F8013B13F05D
:1002E000070408BF10F8014B1D1108BF10F8015B8F
:1002F000641E05D010F8016B641E01F8016BF9D182
:1003000013F0080F1EBF10F8014BAD1C0C1B09D1D8
:100310006D1E58BF01F801CBFAD505E014F8016B4A
:1003200001F8016B6D1EF9D59142D6D370470000DC
:100330000023002400250026103A28BF78C1FBD8EE
:10034000520728BF30C148BF0B607047642900F0D6
:100350001781752900F01481782900F04D816329F7
:1003600000F0D282732900F0D782002070471FB5B9
:100370000AF050FC1FBD10B510BD00F0FFFA114689
:10038000FFF7F5FF09F08AFA00F01DFB03B4FFF751
:10039000F2FF03BC09F037FA0948804709480047D3
:1003A000FEE7FEE7FEE7FEE7FEE7FEE7FEE7FEE725
:1003B000FEE7FEE704480549054A064B7047000082
:1003C000998800089902000858050024580B002459
:1003D000580700245807002453EA020C00F06980F3
:1003E0002DE9F04B4FF00006002B1FBFB3FA83F549
:1003F00003FA05F424FA05F65E4012BF1643B2FA7A
:1004000082F502FA05F4C5F120051EBF22FA05FCAB
:1004100044EA0C04203556EA044C4FEA144418BF51
:10042000641C4FF000084FF00009904271EB030C80
:1004300039D3002919BFB1FA81F701FA07F6B0FAEA
:1004400080F700FA07F6C7F120071EBF20FA07FC65
:1004500046EA0C062037B6FBF4FCA7EB0507103F75
:1004600007F01F0BCBF120060CFA0BFB2CFA06F65B
:1004700044BFB3460026202FA4BF5E464FF0000BBA
:100480005BEA060C08BF4FF0010B19EB0B09ABFB45
:10049000027C48EB0608C01B06FB02CC0BFB03CC1E
:1004A00071EB0C01C1E70B46024641464846BDE8E8
:1004B000F08B13B54FF000004FF00001AFF3008058
:1004C000BDE81C40704700000FB4044910B503AAF2
:1004D000029800F025FA10BC5DF814FB0C00002413
:1004E00070B5044685690068C10601D5302600E074
:1004F0002026C00707D070BDD4E9012130469047BF
:10050000206A401C20626D1EF6D570BD70B5044691
:1005100085690078C00707D170BDD4E9012120208A
:100520009047206A401C20626D1EF6D570BD70B5E4
:100530000C460546012A05D02878800600D5EA69D0
:10054000002302E0012305E05B1C934202D2E05C41
:100550000028F9D1A869E618C01AA861286A1844C9
:1005600028622846FFF7BCFF04E0D5E9012114F812
:10057000010B9047B442F8D32846FFF7C7FF70BD80
:100580002DE9F0410646002410687529314616A56C
:1005900010D0AFF30080002802DA404213A507E034
:1005A00031688A0701D512A502E0490704D511A5D3
:1005B000012401E0AFF3008000210A2206F12407A4
:1005C00009E0B0FBF2FCB0FBF2F302FB1C003030A0
:1005D00078541846491C0028F3D123462A46304651
:1005E000BDE8F04100F02DB9000000002D00000032
:1005F0002B0000002000000070B504460D46214687
:100600001068AFF300802188090502D50F4A7A44AB
:1006100002E00E4A7A440E32002104F1240305E080
:1006200000F00F060009965D5E54491C0028F7D1C2
:1006300020780023000704D5702D02D009B10223D1
:1006400011322046BDE8704000F0FBB8ECED000030
:100650002DE9F05F894604464FF0000ADFF874B1D7
:10066000FB44C0F820A02046E1688847002874D0E9
:10067000252806D0D4E901219047206A401C206239
:10068000F1E700265F462046E168884720280546B6
:1006900007DB312D05D2781910F8200C08B106437C
:1006A000F1E7B00701D526F00406C4F81CA0002726
:1006B000C4F818A02A2D09D0284609F09DF838B3AF
:1006C00004EB8708303DC8F8185019E059F8041BAE
:1006D000204604EB87029161E1688847012F0546B7
:1006E00018D1E069002820DA26F020061DE0D8F8AD
:1006F000180000EB800005EB40003038C8F8180007
:100700002046E1688847054609F076F80028EED1D2
:10071000012F0AD02E2D08D12046E16888477F1C82
:100720000546022F46F02006C4DBA069002803DA44
:10073000404246F00106A061F00701D026F0100605
:100740006C2D0BD0682D09D04C2D39D06A2D35D0A9
:10075000742D35D07A2D33D016E038E0E1682F467D
:1007600020468847B842054609D16C2F26D04FF461
:100770008060E168064320468847054604E06C2F08
:100780001AD04FF4807006430DB3A5F1410019282B
:1007900002D8203546F400664A462946204626609F
:1007A0004E46FFF7D3FD80B101280BD0F61D26F091
:1007B000070000F1080956E74020E4E78020D8E769
:1007C0000020D6E706F104094DE7284652E7206AE3
:1007D000BDE8F09FC2ED000010B5203AC0F00B80DC
:1007E000B1E81850203AA0E81850B1E81850A0E835
:1007F0001850BFF4F5AF5FEA027C24BFB1E818508F
:10080000A0E8185044BF18C918C0BDE810405FEAFE
:10081000827C24BF51F8043B40F8043B08BF70477A
:10082000D20728BF31F8023B48BF11F8012B28BF7F
:1008300020F8023B48BF00F8012B70477047704713
:1008400070472DE9F0470D4699469246044600F15F
:1008500024080168880604D5E06921F010012160B0
:1008600000E00120A84201DD471B00E00027A1694C
:100870007A1902EB0900081AA0612078C00602D498
:100880002046FFF72DFE002608E0D4E901211AF8E2
:1008900006009047206A401C761C20624E45F4DB1F
:1008A0002078C0060AD52046FFF71AFE06E0D4E9F4
:1008B000012130209047206A401C2062381EA7F199
:1008C0000107F4DC07E0D4E9012118F8050090479E
:1008D000206A401C2062281EA5F10105F3DC204699
:1008E000FFF714FE2078000602D50220BDE8F0874D
:1008F0000120FBE710B5436913B1AFF3008001E0BD
:10090000FFF715FE012010BD127800F124010A70D6
:1009100000224A700122EDE711684FF0FF32E9E74B
:10092000074B70B50D467B4400F011F8044628468D
:1009300000F020F810B14FF0FF3070BD204670BDC0
:10094000578F000001694A1C02610878704700B5A2
:100950008FB0CDE901310021059105497944CDE9F8
:10096000031011466846FFF773FE0FB000BD00008C
:10097000E5FFFFFF007B00F080007047754600F048
:100980002BF8AE4605006946534620F00700854621
:1009900018B020B5FFF70EFDBDE820404FF000066F
:1009A0004FF000074FF000084FF0000B21F0070157
:1009B000AC46ACE8C009ACE8C009ACE8C009ACE89A
:1009C000C0098D46704710B50446AFF3008020463D
:1009D000BDE81040FFF7DABC00487047F40400247B
:1009E00070B5044600252068806800F003000128E7
:1009F00006D12068006800F0010008B1012000E085
:100A0000002080B32068806800F00D00012800D12C
:100A100000E0002050B100BF2068806840F0020074
:100A20002168886003202168086009E0606D40F05B
:100A300010006065A06D40F00100A065012070BD50
:100A400001F0E2FA05460FE001F0DEFA401B022851
:100A50000AD9606D40F010006065A06D40F00100A3
:100A6000A0650120EBE705E02068806800F0010048
:100A70000028E9D10020E2E770B50446002520688F
:100A8000806800F00300012806D12068006800F0AB
:100A9000010008B1012000E0002088BB20688068C8
:100AA0001C49084008B9012000E0002048B9606DE9
:100AB00040F010006065A06D40F00100A0650120CD
:100AC00070BD2068806840F001002168886001F0F6
:100AD0009BFA054615E02068806840F00100216817
:100AE000886001F091FA401B02280AD9606D40F03D
:100AF00010006065A06D40F00100A0650120DFE7F7
:100B000005E02068006800F001000028E3D0002024
:100B1000D6E700003F00008000BFFEE710B507F0F9
:100B200079FD07F029FD0348006840F00400014901
:100B3000086010BD9CEF00E07047000070B50446EF
:100B40001D460023B5F5804F13D154F822300C48D0
:100B50000340D1E9000640EA06108E6840EA06200C
:100B60008E8940EA06408E693043034344F82230C0
:100B700003E06FF0704044F82200002070BD0000D8
:100B80000000F0CF10B502460023086852F820306C
:100B90001B480340D1E901042043CC6820430C6981
:100BA00020434C6920438C692043CC6920430C6A64
:100BB00020434C6A20438C6A2043CC6A20430C6B50
:100BC00020438C6B20434C6B2043034388680828E8
:100BD00001D143F04003086842F82030086BB0F5BB
:100BE000801F05D1086818B110680C6B2043106095
:100BF000086818B110684C6B20431060002010BDCD
:100C00008004C0FF30B5034614460022601C53F830
:100C1000202002F04042D1E9000540EA05108D682D
:100C200040EA05208D8940EA0545088A401E45EACC
:100C30000055087D801E45EA00608D692843024307
:100C4000601C43F82020186800F4801038B1586800
:100C500020F47002088A401E42EA00525A600020C6
:100C600030BD30B50246002300240868012816D0A4
:100C700013686FF30E03D1E901052843CD682843BB
:100C80000D6928434D6928438D692843CD69284360
:100C90000D6A28434D6A28430343136019E0136823
:100CA00023F4F843D1E9070528434D6A2843034359
:100CB00054686FF30E04D1E901052843CD68284339
:100CC0000D6928434D6928438D6928430443136007
:100CD0005460002030BD0246506940EA4100506136
:100CE0000020704718B5034600200090D1E90004A9
:100CF00020438C68641E40EA4410CC6840EA4420DB
:100D0000009000981861002018BD000070B50346DF
:100D1000154600220024012D1FD09A6802F070426F
:100D20000868401E4E68761E40EA06168868401E17
:100D300046EA0026C868401E46EA0036088A401E79
:100D400046EA0046888A401E46EA0056087E401E53
:100D500046EA006002439A6022E09A681148024025
:100D6000C868401E0603888A401E46EA00500243B7
:100D7000DC6804F070440868401E4E68761E40EA45
:100D800006168868401E46EA0026088A401E46EA83
:100D90000046087E401E46EA006004439A60DC601C
:100DA000002070BDFF0F0FFF10B588B004460194FE
:100DB00001200290052003900020049005900690E9
:100DC00001A9084800F086F8064800F0B1FE0A21A3
:100DD000044800F0D7FD034800F0E8FB80B208B0FB
:100DE00010BD0000500400242DE9F04107460C46D8
:100DF0000025002608E03846FFF7D6FF0544052009
:100E000008F00EFD701CC6B2A642F4DBB5FBF4F090
:100E100080B2BDE8F0812DE9F04104460D4616464A
:100E20000027B84600BF94F85000012802D10220E4
:100E3000BDE8F081012084F8500000BF2046FFF794
:100E4000CFFD0746CFBB606D20F4885040F0020014
:100E500060652068806820F08040304321688860A9
:100E60002068806820F480302843216888602068EA
:100E7000806840F000402168886011E008F10108B6
:100E8000B8F57A4F0CD3606D20F0020040F01000EE
:100E9000606500BF002084F8500000BF0120C7E754
:100EA0002068806800F000400028E7D1606D20F0E5
:100EB000020040F00100606504E0FFE7606D40F073
:100EC0001000606500BF002084F8500000BF384665
:100ED000AEE70000F8B5024600250020009092F829
:100EE0003900012800D100E000BFC868B0F1804F90
:100EF00000D00AE0FE4E1068B04200D105E0FD4E81
:100F00001068B04200D100E000BF00BF92F850006E
:100F1000012801D10220F8BD012082F8500000BF55
:100F200010688068C0F3800000287DD11068C06917
:100F30000F780126BE4030431668F06148680528E6
:100F40001CD21068066B08794FF4F86797FAA7F778
:100F5000B7FA87F778431F27874026EA07000F79FB
:100F60004FF4F86C9CFAACFCBCFA8CFC07FB0CF759
:100F70000E68BE4030431668306363E048680A2854
:100F80001ED21068466B0879401F4FF4F86797FA35
:100F9000A7F7B7FA87F778431F27874026EA0700A5
:100FA0000E79761F4FF4F86C9CFAACFCBCFA8CFC02
:100FB00006FB0CF60F68B74038431668706341E0D3
:100FC00048680F281ED21068866B08790A384FF4DB
:100FD000F86797FAA7F7B7FA87F778431F2787408C
:100FE00026EA07000E790A3E4FF4F86C9CFAACFC36
:100FF000BCFA8CFC06FB0CF60F68B7403843166849
:10100000B0631FE01068C66B08790F384FF4F867BB
:1010100097FAA7F7B7FA87F778431F27874026EA9A
:1010200007000E790F3E00E0A5E24FF4F86C9CFA41
:10103000ACFCBCFA8CFC06FB0CF60F68B7403843DE
:101040001668F0631068806800F00C0008B1012099
:1010500000E00020002874D108680A281DD3106819
:10106000866908780A38382797FAA7F7B7FA87F712
:1010700078430727874026EA07000E780A3E4FF09C
:10108000380C9CFAACFCBCFA8CFC06FB0CF68F68A6
:10109000B74038431668B06119E0106840690E78AF
:1010A000382797FAA7F7B7FA87F77E430727B7409D
:1010B000B8430F784FF0380C9CFAACFCBCFA8CFCAF
:1010C00007FB0CF78E68BE403043166870614869B4
:1010D0001668F668C6F38206760000FA06F4086918
:1010E000012806D002282DD0032854D0042874D11A
:1010F0007BE01068006E00F000464FF0F84797FA6A
:10110000A7F7B7FA87F70868B84020430643106886
:1011100006661068006920F400600E7E3043166891
:101120003061487E30B11068006E40F000401668B3
:10113000306605E01068006E20F0004016683066EA
:10114000CDE0CDE01068406E00F000464FF0F8476B
:1011500097FAA7F7B7FA87F70868B840204306431D
:10116000106846661068006920F480500E7E40EAE0
:10117000460016683061487E30B11068406E40F01D
:1011800000401668706605E01068406E20F0004070
:1011900016687066A3E01068806E00F000464FF09D
:1011A000F84797FAA7F7B7FA87F70868B8402043D7
:1011B0000643106886661068006920F400500E7EB1
:1011C00040EA860016683061487E38B11068806E4B
:1011D00040F000401668B06606E02FE01068806EB0
:1011E00020F000401668B06679E01068C06E00F02C
:1011F00000464FF0F84797FAA7F7B7FA87F708685D
:10120000B840204306431068C6661068006920F4A1
:1012100080400E7E40EAC60016683061487E30B1DC
:101220001068C06E40F000401668F06605E0106877
:10123000C06E20F000401668F06650E01068006E46
:1012400000F0F8464FF0F84797FAA7F7B7FA87F794
:101250000868B840864205D11068006E20F0004052
:10126000166830661068406E00F0F8464FF0F84798
:1012700097FAA7F7B7FA87F70868B840864205D10A
:101280001068406E20F00040166870661068806E2E
:1012900000F0F8464FF0F84797FAA7F7B7FA87F744
:1012A0000868B840864205D11068806E20F0004082
:1012B0001668B0661068C06E00F0F8464FF0F84748
:1012C00097FAA7F7B7FA87F70868B840864205D1BA
:1012D0001068C06E20F000401668F06600BF00BFC6
:1012E0001068806800F0030001280BD1106803E04B
:1012F0000060025800200240006800F0010008B1C0
:10130000012000E0002000287ED1C868B0F1804FA5
:101310000AD01068D0F8C0000F780126BE40B04354
:101320001668C6F8C00047E01068D0F8C0000F7813
:101330000126BE4030431668C6F8C0000868092878
:101340001DD31068866908780938382797FAA7F7F7
:10135000B7FA87F778430727874026EA07000E7811
:10136000093E4FF0380C9CFAACFCBCFA8CFC06FB36
:101370000CF68F68B74038431668B0611CE01068FF
:1013800046690878401C382797FAA7F7B7FA87F715
:1013900078430727874026EA07000E78761C4FF02F
:1013A000380C9CFAACFCBCFA8CFC06FB0CF68F6883
:1013B000B740384316687061754E1068B04203D06C
:1013C000744E1068B04201D1734B00E0734B086853
:1013D000122803D1986800F4000070B10868112841
:1013E00003D1986800F0807038B1086813288BD159
:1013F000986800F48000002886D11068806800F0AA
:101400000300012808D100E0AEE01068006800F099
:10141000010008B1012000E0002000287ED15C4ED0
:101420001068B04222D15B480830006800F0030029
:10143000012806D15748006800F0010008B10120DA
:1014400000E0002070B95648806800F003000128D1
:1014500006D15348006800F0010008B1012000E007
:10146000002008B1012049E0002047E0494E106803
:10147000B04221D14648806800F00300012806D11F
:101480004348006800F0010008B1012000E000209E
:1014900070B94348806800F00300012806D1404835
:1014A000006800F0010008B1012000E0002008B150
:1014B00001200FE000200DE03548806800F00300B7
:1014C000012806D13248006800F0010008B101206F
:1014D00000E0002078B92F480830006800F00300D1
:1014E000012806D12B48006800F0010008B1012056
:1014F00000E0002008B1012000E0002070B9086879
:1015000012281AD1264E1068B04216D1986840F4BD
:101510000000986023480068234E00E025E0B0FBFF
:10152000F6F0C0EB0010C000009002E00098401EF2
:10153000009000980028F9D122E00868112808D10D
:10154000174E1068B04204D1986840F080709860DF
:1015500016E00868132813D1114E1068B0420FD15D
:10156000986840F4800098600AE0506D40F02000D8
:101570005065012504E0506D40F0200050650125C4
:1015800000BF002082F8500000BF2846C3E40000DE
:101590000020024000210240002302400063025864
:1015A000006002580000002480841E000146086884
:1015B000006C7047F8B50446002700260020009014
:1015C0000CB90120F8BDE06818B1207F012800D1D6
:1015D00000BF606D30B9204600F098F90020A0658A
:1015E00084F850002068806800F0005028B120681E
:1015F000806820F00050216888602068806800F0D2
:101600008050A8B92068806840F0805021688860C8
:10161000B5480068B549B0FBF1F000EB8000400030
:10162000009002E00098401E009000980028F9D138
:101630002068806800F0805040B9606D40F0100074
:101640006065A06D40F00100A0650127606D00F0AD
:10165000100000286FD120688068C0F38000002847
:10166000F8D1606D40F002006065A14920688842B1
:1016700003D0A0492068884201D19F4D00E09F4DD2
:101680002068806800F00300012806D12068006807
:1016900000F0010008B1012000E00020002877D10F
:1016A00093492068884222D192480830006800F0AF
:1016B0000300012806D18F48006800F0010008B13E
:1016C000012000E0002070B98D48806800F0030020
:1016D000012806D18A48006800F0010008B1012005
:1016E00000E0002008B101204BE0002049E08149E2
:1016F0002068884222D17E48806800F003000128DB
:1017000006D17B48006800F0010008B1012000E02C
:10171000002070B97A48806800F00300012806D1E3
:101720007748006800F0010008B1012000E00020C7
:1017300010B1012010E0D0E000200DE06C4880687E
:1017400000F00300012806D16948006800F001009C
:1017500008B1012000E0002078B966480830006830
:1017600000F00300012806D16248006800F0010083
:1017700008B1012000E0002010B1012001E007E0E5
:10178000002028B9A86820F47C1061680843A8608C
:10179000607D4FF4005191FAA1F1B1FA81F18840D6
:1017A000216B0843A1680843217F4FF4803292FAED
:1017B000A2F2B2FA82F2914040EA0106207F0128AB
:1017C00009D1206A401E4FF4602191FAA1F1B1FACB
:1017D00081F188400643606A012805D0A06A18B1EB
:1017E000D4E90901084306432068C0684549084018
:1017F00030432168C8602068806800F00C0008B1A0
:10180000012000E0002070BB207D4FF4804191FA60
:10181000A1F1B1FA81F18840E16A40EA010620684D
:10182000C06844F20301884330432168C86094F8DB
:101830003900012818D1606A012801D0A06A00B9D6
:1018400000BFA08F012141EA0041206C0843616C78
:101850000843A16C0843216809692B4A11400843D9
:101860002168086106E01EE02068006920F00100A0
:10187000216808612068006920F07040616B0843AE
:101880002168086194F83800012806D12068806832
:1018900040F480702168886005E02068806820F44A
:1018A000807021688860E068012809D12068006B99
:1018B00020F00F00A169491E08432168086305E074
:1018C0002068006B20F00F0021680863606D20F035
:1018D000020040F00100606504E0606D40F010001F
:1018E0006065012738466DE60000002480841E00F4
:1018F0000020024000210240002302400063025801
:101900000060025803C0F0FF1EF800FC10B586B05E
:10191000044600BF1948006840F0200017490860DD
:101920000846006800F02000009000BF00BF00BF24
:1019300012480830006840F0010010490831086082
:101940000846006800F00100009000BF00BF0B488F
:101950008038006820F4403040F400300749803976
:10196000086020200190032002900020039001A92C
:10197000034800F011FA06B010BD0000D844025828
:10198000000002582DE9F05F04460D464FF00009B3
:101990000027B8464FF0010B2069082801D108271D
:1019A0003FE05F492068884203D05E492068884252
:1019B00014D15D48006800F01F0068B15A48006803
:1019C00000F01F00052807D05748006800F01F00EE
:1019D000092801D0012002E0002000E0002058B9D1
:1019E0002068C06800F00100D0B1606D40F02000B8
:1019F00060650120BDE8F09F4B4E083EB06800F4E2
:101A00004040B0F5004F05D0B06800F44040B0F55C
:101A1000404F05D1606D40F0200060650120E9E78E
:101A2000042700F0F1FA814613E0681C88B12DB15B
:101A300000F0EAFAA0EB0900A8420AD9606D40F074
:101A40000400606500BF002084F8500000BF032040
:101A5000D0E72068006838400028E6D02068006899
:101A600000F0080008B94FF0000B2D4920688842AB
:101A700003D02E492068884201D1012013E02A4872
:101A8000006800F01F0058B12748006800F01F00F0
:101A9000052805D02448006800F01F00092801D15E
:101AA000012000E0002018B12068D0F80C800DE083
:101AB0001B492068884203D01C492068884201D114
:101AC000206800E016488246DAF80C80082F03D11F
:101AD00008202168086005E008F4804010B904205F
:101AE00021680860606D40F400706065BBF1000F14
:101AF00013D02068C06800F4406070B908F400504A
:101B000058B9606D20F480706065606D00F480509D
:101B100018B9606D40F00100606500206AE70000C0
:101B200000200240002102400823024000600258C9
:101B300070B50446002520688068C0F38000002846
:101B400072D100BF94F85000012801D1022070BD6D
:101B5000012084F8500000BF2046FEF78DFF0546A7
:101B6000002D70D1606D00F4805020B1A06D20F088
:101B70000600A06501E00020A065606D40F60161EF
:101B8000884340F4807060653C492068884203D0F7
:101B90003B492068884201D1012007E039480068AC
:101BA00000F01F0008B9012000E0002018B1606DAE
:101BB00020F4801060651C20216808602F4920688F
:101BC000884203D030492068884201D1012013E0C7
:101BD0002C48006800F01F0058B12A48006800F047
:101BE0001F00052805D02748006800F01F000928BD
:101BF00001D1012000E00020B8B12068C06800F0E9
:101C0000007028B1606D20F4005040F48050606591
:101C100000BF002084F8500000BF2068806840F0BA
:101C200004002168886026E024E0606D40F48010A4
:101C3000606512492068884203D0134920688842B1
:101C400002D1206801E010E00C480646F06800F080
:101C5000007028B1606D20F4005040F48050606541
:101C600000BF002084F8500005E000BF002084F889
:101C7000500000E00225284669E7000000200240ED
:101C800000210240082302400060025810B50446BB
:101C90000CB9012010BD94F83500022803D0802033
:101CA00060650120F6E734492068884205D333494E
:101CB0002068884201D8012000E00020C0B1042043
:101CC00084F835002C49206888420AD32B492068C3
:101CD000884206D82068006820F00100216808606A
:101CE00048E02068006820F001002168086041E0B9
:101CF0002068006820F00E00216808601E492068F6
:101D000088420AD31D492068884206D820680068A6
:101D100020F001002168086005E02068006820F0DC
:101D2000010021680860206E006820F48070216E38
:101D3000086094F85C100120884011490860D4E9DB
:101D400019104860E06E40B1E06E006820F48070C9
:101D5000E16E0860D4E91C10486000BF002084F8E0
:101D6000340000BF012084F83500206D10B12046FA
:101D7000216D884700208DE710000240B804024022
:101D8000045402580348006840F00100014908600B
:101D90007047000020040058F8B502460B460021A9
:101DA000002600240020824D00BFFCE0012707FA36
:101DB00001F61F6807EA0604B4427CD15F68022F6F
:101DC00002D05F68122F1AD14FEAD10C02F120071E
:101DD00057F82C004F074FEAD76C0F2707FA0CF77C
:101DE000B8434FEA417C4FEADC6C1F6907FA0CF7F5
:101DF00038434FEAD10C02F1200747F82C00106855
:101E00004FEA410C032707FA0CF7B8431F7907F094
:101E100003074FEA410C07FA0CF7384310605F687C
:101E2000012F08D05F68022F05D05F68112F02D004
:101E30005F68122F17D190684FEA410C032707FA09
:101E40000CF7B8434FEA410CDF6807FA0CF7384348
:101E50009060506801278F40B8431F79C7F300177F
:101E60008F4038435060D0684FEA410C032707FA8F
:101E70000CF7B8434FEA410C9F6807FA0CF7384358
:101E8000D0605F6807F08057B7F1805F95D100BFE1
:101E9000484F3F6847F00207DFF818C1CCF80070E0
:101EA00067463F6807F00207009700BF00BF424F38
:101EB0004FEA910C00E075E057F82C008F074FEACD
:101EC000177C0F2707FA0CF7B8433C4FBA4201D1F1
:101ED00000272DE03A4FBA4201D1012728E0394FBF
:101EE000BA4201D1022723E0374FBA4201D103277A
:101EF0001EE0364FBA4201D1042719E0344FBA42EE
:101F000001D1052714E0334FBA4201D106270FE073
:101F1000314FBA4201D107270AE0304FBA4201D10E
:101F2000082705E02E4FBA4201D1092700E00A2711
:101F30004FEA817C4FEA1C7C07FA0CF738431E4FAE
:101F40004FEA910C47F82C002868A0435F6807F41B
:101F50008037B7F5803F00D1204328606868A043F0
:101F60005F6807F40037B7F5003F00D12043686091
:101F70004FF0B0473868A0435F6807F48017B7F5A3
:101F8000801F00D120434FF0B04738607868A043ED
:101F90005F6807F40017B7F5001F00D120434FF02A
:101FA000B0477860491C1029FFF400AFF8BD00006D
:101FB00080000058F44402580804005800000258F9
:101FC0000004025800080258000C02580010025881
:101FD0000014025800180258001C02580020025831
:101FE00000240258024613690B400BB1012000E0A7
:101FF0000020704742694A40426170470AB101833C
:1020000000E041837047000001480068704700000D
:102010001400002403480068034909780844014972
:1020200008607047140000241C00002410B5032031
:1020300000F0AEFA0F2000F007F808B1012010BD43
:1020400000F058FA0020FAE770B504460E48007810
:102050004FF47A71B1FBF0F00C490968B1FBF0F56F
:10206000284602F023FA08B1012070BD102C07D2D7
:1020700000222146501E00F04EFA0548046001E09F
:102080000120F2E70020F0E71C00002400000024FB
:102090001800002470B504460E46154600BF94F89B
:1020A000A000012801D1022070BD012084F8A00009
:1020B00000BF022084F8A10005EB850101EBC502F9
:1020C00004F1380101EB820034223146FEF784FB33
:1020D0002A463146204605F0E5FF01202168486286
:1020E00084F8A10000BF002084F8A00000BF00BF5A
:1020F000DAE7000070B50446002500260CB901207F
:1021000070BD94F8A10028B9002084F8A0002046F2
:1021100000F07EF8022084F8A1002068806920F099
:10212000704021688861D4E901010843E1680843EF
:10213000216908432168896908432168886120680A
:1021400080683249084021688860A08A05042068B8
:102150008068A16929430843216888602068C068B5
:102160002A4908402168C860A08B05042068C0681F
:10217000216A294308432168C8602068006923490F
:10218000084021680861A08C050420680069A16AE4
:102190002943084321680861206840691B490840B9
:1021A00021684861A08D050420684069216B29439E
:1021B00008432168486194F83500050294F8360018
:1021C00006042068C06A00F07F402168C86246EAC1
:1021D000050094F8341008432168C96A084321684F
:1021E000C8622068406B40F00600216848632068A0
:1021F000806940F00100216888610020C4F8A400D3
:10220000012084F8A10000207AE7000000F800F027
:1022100010B586B0044600BF4848006840F008008A
:10222000464908600846006800F00800009000BFBA
:1022300000BF00BF41481038006840F010003F491F
:10224000103908600846006800F01000009000BFD8
:1022500000BF00BF3948001F006840F00200374946
:10226000091F08600846006800F00200009000BFE7
:1022700000BF00BF0846006840F020000860084624
:10228000006800F02000009000BF00BF00BF0846BB
:10229000006840F0400008600846006800F0400018
:1022A000009000BF00BF00BF0846006840F08000FB
:1022B00008600846006800F08000009000BF00BF82
:1022C00000BF0846006840F4807008600846006857
:1022D00000F48070009000BF00BF2020019001201A
:1022E000029003900320049001A91548FFF754FDC4
:1022F0004FF48060019002200290002003900320A0
:1023000004900E20059001A90E48FFF745FD4FF4FB
:102310000C60019001A90C48FFF73EFD4FF47E4090
:10232000019001A90948FFF737FD40F2F7600190DD
:1023300001A90748FFF730FD06B010BDE44402587C
:10234000000402580014025800180258001C0258D9
:10235000002002582DE9F04104460E4617469846E3
:1023600000BF94F8A000012802D10220BDE8F0814E
:10237000012084F8A00000BF022084F8A10008EB2F
:10238000880000EBC80104F1380000EB81052E60E5
:10239000A86A30446860AF60E86A3844E860424642
:1023A0002946204605F07EFE01202168486284F817
:1023B000A10000BF002084F8A00000BF00BFD5E747
:1023C0002DE9F04104460E461746984600BF94F8A2
:1023D000A000012802D10220BDE8F081012084F88C
:1023E000A00000BF022084F8A10008EB880000EBE9
:1023F000C80104F1380000EB8105286830446860AA
:10240000A8683844E860AE62EF624246294620463A
:1024100005F048FE01202168486284F8A10000BF51
:10242000002084F8A00000BF00BFD5E74178154A1E
:1024300011600178F9B1121D41681160017B090733
:10244000C27A41EA0261827A41EAC241427B41EAB0
:102450008241827B41EA4241C27B41EA0241427AA7
:1024600041EA0221027A41EA420102781143054A17
:102470000832116005E00021024A121D1160121D90
:102480001160704798ED00E000BF00BF00BFBFF3D0
:102490005F8F00BF00BF00BF0548006820F4803098
:1024A000034908600020024970310860704700004D
:1024B00024ED00E040F001010D4A11600C49703933
:1024C000096841F480310A4A703A116000BF00BFC8
:1024D00000BFBFF34F8F00BF00BF00BF00BF00BFF2
:1024E00000BFBFF36F8F00BF00BF00BF7047000089
:1024F00094ED00E0704701460846002809DB00F033
:102500001F0301229A4043099B0003F1E023C3F813
:10251000002100BF70472DE9F05F80460D4616464A
:1025200007F04EF9074639462A46334601F00700C0
:10253000C0F1070ABAF1040F02D94FF0040A01E012
:10254000C0F1070AD14600F1040ABAF1070F02D21E
:102550004FF0000A01E0A0F1030AD4464FF0010A4F
:102560000AFA09FAAAF1010A0AEA020A0AFA0CFAB4
:102570004FF0010B0BFA0CFBABF1010B0BEA030B59
:102580004AEA0B042146404607F022F9BDE8F09FD5
:1025900000BF00F00702064B19684FF6FF03194011
:1025A000044B0B4343EA0221014B196000BF704703
:1025B0000CED00E00000FA0510B501F067F90949DB
:1025C000096801F470614FF4807292FAA2F2B2FAD3
:1025D00082F2D140044A515CC84004490860084670
:1025E000006810BD184402584EAC000800000024DA
:1025F00010B501F003F90749096801F070011022D4
:1026000092FAA2F2B2FA82F2D140034A515CC84077
:1026100010BD0000204402584EAC000870B50146C1
:1026200000220120002300249FED811AB0EE410A10
:102630009FED7F1AF0EE410A7E4D2D6805F00302F2
:102640007C4D2D68C5F305307A4D2D1D2D6805F0A4
:102650001003784D14352D68C5F3CC0515FB03F533
:1026600001EE105AB8EE411AB0EE410A22B1012A29
:102670004DD0022A7DD169E06E4D283D2D68C5F30D
:1026800040152DB36B4D283D2D68C5F3C1066A4D2D
:1026900025FA06F4B4FBF0F501EE105AF8EE411AF3
:1026A0009FED661A80EE012A624D10352D68C5F344
:1026B000080501EE105AB8EE411A32EE011AB7EED3
:1026C000002A31EE021A21EE811AF0EE410A1DE0D5
:1026D000594DB5FBF0F501EE105AF8EE411A9FED99
:1026E000571A80EE012A534D10352D68C5F30805A1
:1026F00001EE105AB8EE411A32EE011AB7EE002A76
:1027000031EE021A21EE811AF0EE410A5EE04C4DE4
:10271000B5FBF0F501EE105AB8EE412A9FED471ACD
:10272000C0EE011A434D10352D68C5F3080501EEC2
:10273000105AB8EE411A31EE811AF7EE001A31EE56
:10274000211A22EE011AF0EE410A3FE03D4DB5FBA1
:10275000F0F501EE105AF8EE411A9FED381A80EEAE
:10276000012A344D10352D68C5F3080501EE105AC5
:1027700000E00CE0B8EE411A32EE011AB7EE002A82
:1027800031EE021A21EE811AF0EE410A1EE02C4DC4
:10279000B5FBF0F501EE105AB8EE412A9FED271A6D
:1027A000C0EE011A234D10352D68C5F3080501EE62
:1027B000105AB8EE411A31EE811AF7EE001A31EED6
:1027C000211A22EE011AF0EE410A00BF00BF194D96
:1027D00010352D68C5F346256D1C01EE105AB8EE74
:1027E000411AC0EE811ABCEEE11A81ED001A114DBA
:1027F00010352D68C5F306456D1C01EE105AB8EE74
:10280000411AC0EE811ABCEEE11A81ED011A094DA0
:1028100010352D68C5F306656D1C01EE105AB8EE33
:10282000411AC0EE811ABCEEE11A81ED021A70BDA8
:1028300000000000284402580090D0030000004629
:1028400000093D0040787D0170B50146002201205D
:10285000002300249FED811AB0EE410A9FED7F1AFC
:10286000F0EE410A7E4D2D6805F003027C4D2D6887
:10287000C5F305507A4D2D1D2D6805F48073784DF4
:102880001C352D68C5F3CC0515FB03F501EE105A78
:10289000B8EE411AB0EE410A22B1012A4DD0022A07
:1028A0007DD169E06E4D283D2D68C5F340152DB3EF
:1028B0006B4D283D2D68C5F3C1066A4D25FA06F417
:1028C000B4FBF0F501EE105AF8EE411A9FED661ACE
:1028D00080EE012A624D18352D68C5F3080501EE1A
:1028E000105AB8EE411A32EE011AB7EE002A31EE54
:1028F000021A21EE811AF0EE410A1DE0594DB5FB96
:10290000F0F501EE105AF8EE411A9FED571A80EEDD
:10291000012A534D18352D68C5F3080501EE105AEC
:10292000B8EE411A32EE011AB7EE002A31EE021A61
:1029300021EE811AF0EE410A5EE04C4DB5FBF0F558
:1029400001EE105AB8EE412A9FED471AC0EE011A67
:10295000434D18352D68C5F3080501EE105AB8EE41
:10296000411A31EE811AF7EE001A31EE211A22EEE9
:10297000011AF0EE410A3FE03D4DB5FBF0F501EEE6
:10298000105AF8EE411A9FED381A80EE012A344DA4
:1029900018352D68C5F3080501EE105A00E00CE06B
:1029A000B8EE411A32EE011AB7EE002A31EE021AE1
:1029B00021EE811AF0EE410A1EE02C4DB5FBF0F538
:1029C00001EE105AB8EE412A9FED271AC0EE011A07
:1029D000234D18352D68C5F3080501EE105AB8EEE1
:1029E000411A31EE811AF7EE001A31EE211A22EE69
:1029F000011AF0EE410A00BF00BF194D18352D68CD
:102A0000C5F346256D1C01EE105AB8EE411AC0EE12
:102A1000811ABCEEE11A81ED001A114D18352D68AE
:102A2000C5F306456D1C01EE105AB8EE411AC0EE12
:102A3000811ABCEEE11A81ED011A094D18352D6895
:102A4000C5F306656D1C01EE105AB8EE411AC0EED2
:102A5000811ABCEEE11A81ED021A70BD000000007F
:102A6000284402580090D0030000004600093D00B1
:102A700040787D012DE9F0410446002500262068BC
:102A800000F00060B0F1006F30D1606E48B1B0F579
:102A9000801F0DD0B0F5001F10D0B0F5401F15D12C
:102AA00013E0F948006840F40030F74908600FE08F
:102AB0000221201D05F030FC054609E0022104F149
:102AC000240005F0C1FC054602E001E0012500BF3D
:102AD00000BF55B9EC482430006820F44010616E06
:102AE0000843E9492431086000E02E43208800F4BF
:102AF0008070B0F5807F2DD1606D05281AD2DFE897
:102B000000F0030A10171800DF48006840F4003096
:102B1000DD49086010E00021201D05F0FDFB0546A1
:102B20000AE0002104F1240005F08EFC054603E0D4
:102B300002E001E0012500BF00BF55B9D2482430B2
:102B4000006820F00700616D0843CF492431086018
:102B500000E02E43208800F40070B0F5007F33D1F0
:102B6000A06D802817D003DC40B140281CD10CE0B8
:102B7000C02817D0B0F5807F16D114E0C248006895
:102B800040F40030C049086010E00021201D05F02D
:102B9000C3FB05460AE0002104F1240005F054FCC3
:102BA000054603E002E001E0012500BF00BF55B982
:102BB000B5482430006820F4E070A16D0843B249A4
:102BC0002431086000E02E43208800F48060B0F5D6
:102BD000806F38D1D4F8A400B0F5800F19D004DC90
:102BE00050B1B0F5001F1DD10DE0B0F5C00F17D0EA
:102BF000B0F5000F16D114E0A348006840F400308F
:102C0000A149086010E00021201D05F085FB054664
:102C10000AE0002104F1240005F016FC054603E05B
:102C200002E001E0012500BF00BF5DB996482C30ED
:102C3000006820F46000D4F8A410084392492C31B5
:102C4000086000E02E43208800F40060B0F5006FBB
:102C500038D1D4F8A800B0F1007F19D004DC50B10D
:102C6000B0F1807F1DD10DE0B0F1407F17D0B0F101
:102C7000806F16D114E08448006840F40030824927
:102C8000086010E00021201D05F046FB05460AE023
:102C9000002104F1240005F0D7FB054603E002E023
:102CA00001E0012500BF00BF5DB977482C30006806
:102CB00020F0E060D4F8A810084373492C31086074
:102CC00000E02E43206800F00070B0F1007F27D1B3
:102CD000A06CA0B1102804D0202809D030280FD132
:102CE0000CE06948006840F400306749086009E07A
:102CF0000221201D05F010FB054603E002E001E083
:102D0000012500BF00BF55B95F482030006820F0A2
:102D10003000A16C08435C492031086000E02E437C
:102D2000208800F48050B0F5805F36D1E06DB0F5BA
:102D3000005F19D004DC50B1B0F5805F1DD10DE00B
:102D4000B0F5405F17D0B0F5804F16D114E04E4873
:102D5000006840F400304C49086010E00021201D5C
:102D600005F0DAFA05460AE0002104F1240005F036
:102D70006BFB054603E002E001E0012500BF00BF58
:102D800055B941482430006820F4E040E16D084323
:102D90003D492431086000E02E43208800F40050B3
:102DA000B0F5005F34D1206EB0F5403F1DD007DC98
:102DB00068B1B0F5803F0BD0B0F5003F18D10DE001
:102DC000B0F5802F12D0B0F5A02F11D10FE011E097
:102DD0000121201D05F0A0FA05460BE0012104F1B8
:102DE000240005F031FB054604E003E002E001E0C9
:102DF000012500BF00BF55B923482430006820F4E6
:102E0000E020216E084320492431086000E02E4371
:102E1000208800F48040B0F5804F38D1D4F8AC0061
:102E2000B0F1405F1DD007DC68B1B0F1805F0BD01E
:102E3000B0F1005F18D10DE0B0F1804F12D0B0F1C9
:102E4000A04F11D10FE011E00121201D05F064FA1F
:102E500005460BE0012104F1240005F0F5FA0546D2
:102E600004E003E002E001E0012500BF00BF6DB90E
:102E700005482C30006820F0E040D4F8AC1008433E
:102E800001492C31086002E02C4402582E4320886E
:102E900000F40040B0F5004F26D1E06E98B1B0F1DB
:102EA000805F03D0B0F1005F0ED106E0FA48006801
:102EB00040F40030F849086008E00121201D05F0C9
:102EC0002BFA054602E001E0012500BF00BF55B91D
:102ED000F1482430006820F04050E16E0843EE498C
:102EE0002431086000E02E43206800F08070B0F1CB
:102EF000807F27D1606CA0B1012804D0022809D0BE
:102F000003280FD10CE0E448006840F40030E249A7
:102F1000086009E00221201D05F0FEF9054603E0E6
:102F200002E001E0012500BF00BF55B9DA482030BA
:102F3000006820F00300616C0843D7492031086025
:102F400000E02E43206800F48000B0F5800F7DD1B2
:102F5000D248006840F48070D0490860FFF754F808
:102F6000074606E0FFF750F8C01B642801D9032587
:102F700005E0CA48006800F480700028F2D000BF65
:102F80008DBBC5484430006800F44070B4F8B01000
:102F900001F44071884214D0BF484430006820F4E6
:102FA0004078BD484430006840F48030BA4944312C
:102FB00008600846006820F4803008600846C0F8C1
:102FC0000080D4F8B000B0F5807F15D1FFF71CF871
:102FD000074609E0FFF718F8C01B41F28831884224
:102FE00002D9032507E038E0AB4844300068C0F35D
:102FF00040000028EED000BF4DBB00BFB4F8B000C9
:1030000000F44070B0F5407F0ED1A3481C38006832
:1030100020F47C51A24AD4F8B000104041EA1010CC
:103020009D491C39086007E09B481C38006820F463
:103030007C5099491C390860974844300068B4F8BE
:10304000B010C1F30B010843934901E006E002E030
:103050004431086002E02E4300E02E43207800F067
:10306000010068B3A06F182819D005DC48B1082802
:1030700008D0102816D10BE0202811D0282811D113
:103080000FE011E00121201D05F046F905460BE097
:10309000012104F1240005F0D7F9054604E003E01E
:1030A00002E001E0012500BF00BF55B97A48283091
:1030B000006820F03800A16F084377492831086084
:1030C00000E02E43207800F00200022828D1606F33
:1030D000062815D2DFE800F003040A11121311E0EC
:1030E0000121201D05F018F905460BE0012104F12E
:1030F000240005F0A9F9054604E003E002E001E040
:10310000012500BF00BF55B963482830006820F092
:103110000700616F084360492831086000E02E43D2
:10312000207800F0040004282AD1D4F89000062862
:1031300015D2DFE800F003040A11121311E0012197
:10314000201D05F0E9F805460BE0012104F12400FB
:1031500005F07AF9054604E003E002E001E001250C
:1031600000BF00BF5DB94C482C30006820F007005C
:10317000D4F89010084348492C31086000E02E43F1
:10318000207800F02000202836D1D4F88C00B0F14F
:10319000405F1DD007DC68B1B0F1805F0BD0B0F1AB
:1031A000005F18D10DE0B0F1804F12D0B0F1A04F08
:1031B00011D10FE011E00021201D05F0ADF805460A
:1031C0000BE0022104F1240005F03EF9054604E07D
:1031D00003E002E001E0012500BF00BF5DB92E4819
:1031E0002830006820F0E040D4F88C1008432A49C9
:1031F0002831086000E02E43207800F0400040288D
:1032000036D1D4F89800B0F5406F1DD007DC68B116
:10321000B0F5806F0BD0B0F5006F18D10DE0B0F5B0
:10322000805F12D0B0F5A05F11D10FE011E0002156
:10323000201D05F071F805460BE0022104F1240081
:1032400005F002F9054604E003E002E001E0012593
:1032500000BF00BF5DB910482C30006820F4E0507A
:10326000D4F8981008430C492C31086000E02E4334
:10327000207800F0800080283BD1D4F89C00B0F585
:10328000C04F24D00EDCA0B1B0F5005F12D0B0F575
:10329000804F1FD114E000002C440258004802580F
:1032A000FFFCFF0FB0F5004F12D0B0F5204F11D149
:1032B0000FE011E00021201D05F02EF805460BE07F
:1032C000022104F1240005F0BFF8054604E003E004
:1032D00002E001E0012500BF00BF4DB9B24800681F
:1032E00020F46040D4F89C100843AF49086000E027
:1032F0002E43207800F00800082816D1D4F880006A
:10330000B0F5805F06D1022104F1240005F09CF89D
:1033100006430AE0A448001F006820F44050D4F897
:1033200080100843A049091F0860207800F01000B1
:10333000102814D1D4F89400B0F5807F06D1022172
:1033400004F1240005F080F8064308E09648006880
:1033500020F44070D4F89410084393490860206822
:1033600000F40020B0F5002F26D1D4F8A00030B131
:10337000B0F5803F09D0B0F5003F0ED10CE0002140
:10338000201D04F0C9FF054609E0022104F12400D4
:1033900005F05AF8054602E001E0012500BF00BF34
:1033A0004DB98148006820F44030D4F8A01008439B
:1033B0007D49086000E02E43206800F48020B0F5CD
:1033C000802F2DD1D4F88400B0F5801F06D0B0F541
:1033D000001F0CD0B0F5401F11D10FE072482C38FF
:1033E000006840F4003070492C39086009E0012180
:1033F00004F1240005F028F8054602E001E001256B
:1034000000BF00BF5DB96848001F006820F440108D
:10341000D4F8841008436449091F086000E02E4373
:10342000206800F48030B0F5803F24D1E06C18B102
:10343000B0F5803F0FD108E05B482C38006840F4BD
:10344000003059492C39086007E00221201D04F0A2
:1034500063FF054601E0012500BF00BF55B9524892
:103460000C38006820F48030E16C08434E490C3978
:10347000086000E02E43206800F00050B0F1005FCB
:1034800005D1022104F1240004F0DEFF0643206888
:1034900000F40030B0F5003F27D1E06FA0B1B0F5E7
:1034A000807F06D0B0F5007F0CD0B0F5407F0CD106
:1034B00009E03D482C38006840F400303A492C3986
:1034C000086004E003E002E001E0012500BF00BF66
:1034D00055B93548001F006820F44070E16F08437B
:1034E0003149091F086000E02E43206800F4801075
:1034F000B0F5801F09D12C480838006820F0004042
:10350000216F0843284908390860206800F080507E
:10351000B0F1805F0AD124484838006820F4804028
:10352000D4F8B4100843204948390860206800F4F2
:103530000010B0F5001F09D11B480838006820F0C2
:103540008070A16E0843184908390860206800F0AF
:103550008040B0F1804F11D100BF13484838006857
:1035600020F4004010494839086008460068D4F843
:10357000B81008430C494839086000BF206800F0C3
:103580000040B0F1004F09D107480C38006820F026
:103590004050216D084304490C39086016B90020D9
:1035A000BDE8F0810120FBE75844025870B504469D
:1035B0000D4600268D48006800F00700A8420ED294
:1035C0008A48006820F007002843884908600846B8
:1035D000006800F00700A84201D0012070BD2078EB
:1035E00000F00200022807D18148006820F00F0097
:1035F000E16808437E490860207800F00100002857
:1036000051D07B48006820F47060A1680843784975
:1036100008606068022807D1754818380068C0F350
:103620004040F8B90120D9E76068032807D1704805
:1036300018380068C0F34060A0B90120CEE7606888
:10364000012807D16A4818380068C0F3002048B93B
:103650000120C3E7664818380068C0F3800008B945
:103660000120BBE762480838006820F00700616865
:1036700008435F4908390860FEF7C6FC06466068E3
:10368000022811D108E0FEF7BFFC801B41F288310F
:10369000884201D90320A1E755480838006800F0A6
:1036A00038001028EFD13AE06068032811D108E013
:1036B000FEF7AAFC801B41F28831884201D9032021
:1036C0008CE74B480838006800F038001828EFD124
:1036D00025E06068012811D108E0FEF795FC801B09
:1036E00041F28831884201D9032077E74048083801
:1036F000006800F038000828EFD110E008E0FEF77D
:1037000083FC801B41F28831884201D9032065E7A0
:1037100037480838006800F038000028EFD13348F7
:10372000006800F00700A8420ED93048006820F079
:10373000070028432D4908600846006800F007008C
:10374000A84201D0012049E7207800F004000428B5
:1037500007D12748006820F07000216908432449F8
:103760000860207800F00800082809D12048001DD2
:10377000006820F07000616908431D49091D086058
:10378000207800F01000102809D11948001D0068A9
:1037900020F4E060A16908431549091D08602078FC
:1037A00000F02000202809D111480830006820F0DE
:1037B0007000E16908430E490831086000F066F8BE
:1037C0000B49096801F470614FF4807292FAA2F219
:1037D000B2FA82F2D140074A515CC84006490860FB
:1037E0000F20FEF731FC0020F8E600000020005218
:1037F000184402584EAC00080000002410B5FEF733
:10380000DBFE0949096801F00F01012292FAA2F2D8
:10381000B2FA82F2D140054A515CC84004490860BE
:103820000846006810BD0000184402584EAC00085D
:103830000400002410B5FFF7E1FF0749096801F013
:103840007001102292FAA2F2B2FA82F2D140034A37
:10385000515CC84010BD00001C4402584EAC00082A
:1038600010B5FFF7CBFF0749096801F4E0614FF499
:10387000807292FAA2F2B2FA82F2D140024A515C0C
:10388000C84010BD1C4402584EAC000870B501255C
:1038900000EE905A0022012100230024DFED861A59
:1038A000B0EE610ADFED841AB0EE611A0020834D9C
:1038B0002D6805F0380535B1082D15D0102D15D01F
:1038C000182D7CD114E07D4D103D2D68C5F34015B9
:1038D00045B17A4D103D2D68C5F3C106784D25FAE6
:1038E00006F000E07648E5E07648E3E07648E1E07F
:1038F000724D18352D6805F00302704D18352D688E
:10390000C5F305116D4D1C352D6805F001036B4D98
:1039100024352D68C5F3CC0515FB03F501EE905A4F
:10392000F8EE611AB0EE610A22B1012A4FD0022AE4
:103930007DD16BE0614D103D2D68C5F340152DB371
:103940005E4D103D2D68C5F3C1065D4D25FA06F4A8
:10395000B4FBF1F501EE905AB8EE612ADFED5B1A87
:10396000C0EE212A554D20352D68C5F3080501EE1E
:10397000905AF8EE611A72EEA11AF7EE002A71EE73
:10398000A21A62EE211AB0EE611A1FE04C4DB5FB8F
:10399000F1F501EE905AB8EE612ADFED4C1AC0EE57
:1039A000212A464D20352D68C5F3080501EE905AB1
:1039B000F8EE611A72EEA11AF7EE002A00E077E045
:1039C00071EEA21A62EE211AB0EE611A5EE03D4D70
:1039D000B5FBF1F501EE905AB8EE612ADFED3B1A26
:1039E000C0EE212A354D20352D68C5F3080501EEBE
:1039F000905AF8EE611A72EEA11AF7EE002A71EEF3
:103A0000A21A62EE211AB0EE611A3FE02E4DB5FB0C
:103A1000F1F501EE905AB8EE612ADFED2C1AC0EEF6
:103A2000212A264D20352D68C5F3080500E00EE05B
:103A300001EE905AF8EE611A72EEA11AF7EE002A22
:103A400071EEA21A62EE211AB0EE611A1EE01D4D4F
:103A5000B5FBF1F501EE905AF8EE612ADFED1B1A85
:103A600080EE212A154D20352D68C5F3080501EE9D
:103A7000905AF8EE611A72EE211AB7EE002A71EE32
:103A8000821A62EEA11AB0EE611A00BF00BF0B4DA0
:103A900020352D68C5F346256D1C00EE905AF8EED2
:103AA000601A81EE212AFCEEC21A11EE900A01E0A2
:103AB000044800BF00BF70BD000000001044025861
:103AC0000090D00300093D0040787D0100000046D1
:103AD00070B504460025207800F00100002872D05F
:103AE000F948006800F0380010280CD0F64800684B
:103AF00000F03800182812D1F3481830006800F0A0
:103B0000030002280BD1F04810380068C0F3404091
:103B100000286DD0606800286AD1012070BD00BF08
:103B20006068B0F5803F08D1E7481038006840F47D
:103B30008030E549103908602EE0606868B9E248D5
:103B40001038006820F48030DF49103908600846DA
:103B5000006820F4802008601EE06068B0F5A02FA7
:103B60000DD1D9481038006840F48020D64910396A
:103B700008600846006840F4803008600CE0D248D5
:103B80001038006820F48030CF49103908600846AA
:103B9000006820F48020086000BF6068A0B1FEF7D4
:103BA00033FA054608E0FEF72FFA401B41F2883150
:103BB000884201D90320B1E7C34810380068C0F338
:103BC00040400028EFD013E0FEF71EFA054608E05B
:103BD000FEF71AFA401B41F28831884201D90320CE
:103BE0009CE7B94810380068C0F340400028EFD186
:103BF000207800F00200022847D1B348006800F0A6
:103C0000380058B1B048006800F0380018283ED19C
:103C1000AD481830006800F00300B8BBAA4810385F
:103C20000068C0F3800018B1E06808B9012075E7AA
:103C3000A5481038006820F01900E1680843A2493F
:103C400010390860FEF7E0F9054606E0FEF7DCF9FA
:103C5000401B022801D9032060E79B481038006808
:103C6000C0F380000028F1D097480C38006820F499
:103C70007C304FF47C3292FAA2F2B2FA82F22169DD
:103C80009140084390490C3908604AE0FFE7E0683A
:103C900068B38D481038006820F01900E1680843C7
:103CA000894910390860FEF7AFF9054606E0FEF7CE
:103CB000ABF9401B022801D903202FE782481038B6
:103CC0000068C0F380000028F1D07F480C380068FD
:103CD00020F47C304FF47C3292FAA2F2B2FA82F2F3
:103CE00021699140084378490C39086019E0764809
:103CF0001038006820F00100734910390860FEF7A1
:103D000083F9054606E0FEF77FF9401B022801D93A
:103D1000032003E76C4810380068C0F380000028D7
:103D2000F1D1207800F01000102877D166480068A3
:103D300000F0380008280CD06348006800F0380014
:103D4000182823D160481830006800F003000128CB
:103D50001CD15D4810380068C0F3002020B1E06934
:103D6000802801D00120D9E657480C38006820F09F
:103D7000F8404FF0F84292FAA2F2B2FA82F2216AC7
:103D80009140084350490C39086047E0E06958B356
:103D90004D481038006840F080004B4910390860E9
:103DA000FEF732F9054606E0FEF72EF9401B022821
:103DB00001D90320B2E6444810380068C0F300205F
:103DC0000028F1D040480C38006820F0F8404FF04F
:103DD000F84292FAA2F2B2FA82F2216A91400843C2
:103DE00039490C39086019E037481038006820F06C
:103DF0008000354910390860FEF706F9054606E0EF
:103E0000FEF702F9401B022801D9032086E62E485E
:103E100010380068C0F300200028F1D1207800F0AD
:103E20000800082836D16069D0B12748643000689E
:103E300040F00100244964310860FEF7E5F80546CA
:103E400006E0FEF7E1F8401B022801D9032065E6F1
:103E50001D4864300068C0F340000028F1D019E02C
:103E600019486430006820F0010017496431086087
:103E7000FEF7CAF8054606E0FEF7C6F8401B022822
:103E800001D903204AE6104864300068C0F34000BE
:103E90000028F1D1207800F02000202834D1A0693A
:103EA000D8B109481038006840F4805006491039EC
:103EB0000860FEF7A9F8054608E0FEF7A5F8401BE4
:103EC000022803D9032029E610440258AF480068AD
:103ED000C0F340300028F0D016E0AC48006820F471
:103EE0008050AA490860FEF78FF8054606E0FEF705
:103EF0008BF8401B022801D903200FE6A348006875
:103F0000C0F340300028F2D1207800F004000428EB
:103F10007DD19F48006840F480709D490860FEF79D
:103F200073F8054606E0FEF76FF8401B642801D9D8
:103F30000320F3E59648006800F480700028F2D072
:103F400000BFA068012808D190487030006840F098
:103F500001008E49703108602DE0A06868B98B4877
:103F60007030006820F00100884970310860084610
:103F7000006820F0040008601DE0A06805280DD14D
:103F800082487030006840F0040080497031086059
:103F90000846006840F0010008600CE07B48703083
:103FA000006820F001007949703108600846006817
:103FB00020F00400086000BFA068A0B1FEF724F85C
:103FC000054608E0FEF720F8401B41F288318842A0
:103FD00001D90320A2E56D4870300068C0F34000AD
:103FE0000028EFD013E0FEF70FF8054608E0FEF7D3
:103FF0000BF8401B41F28831884201D903208DE53E
:10400000624870300068C0F340000028EFD1606A59
:1040100000287CD05D481030006800F03800182877
:1040200076D0606A022874D15848006820F0807009
:1040300056490860FDF7E8FF054606E0FDF7E4FF96
:10404000401B022801D9032068E550480068C0F3EE
:1040500040600028F2D100BFD4E90A1041EA001004
:104060004A492831096840F2F332914308434749ED
:1040700028310860208E401EC0F30800616B491E85
:104080004FF47E4202EA41210843218F491ED201AA
:1040900002EA014108433C21095D491E120202EA7D
:1040A0000161084339493031086000BF081D0068CC
:1040B0004FF6F87188434FF6F87292FAA2F2B2FA0C
:1040C00082F2A16C914008433049343108602F4896
:1040D0002C30006820F00C00216C08432B492C3157
:1040E00008600846006820F00200616C0843274918
:1040F0002C3108600846006840F4803008600846AB
:10410000006840F4003008600846006802E03BE0C8
:1041100038E01FE040F4802008600846006840F066
:10412000010008601948006840F080701749086075
:10413000FDF76AFF054606E0FDF766FF401B022813
:1041400001D90320EAE411480068C0F34060002868
:10415000F2D019E00D48006820F080700B4908602B
:10416000FDF752FF054606E0FDF74EFF401B022813
:1041700001D90320D2E405480068C0F3406000285C
:10418000F2D101E00120C9E40020C7E40044025854
:104190000048025870B504460D460CB9012070BDA8
:1041A00094F82C0028B9002084F82D00204600F057
:1041B00019F8022084F82C00211D2068FCF751FD1D
:1041C0002946D4E90002FCF7A1FD0548006840F04B
:1041D000004003490860012084F82C000020DEE73D
:1041E0000040005210B586B0044600BF4648006843
:1041F00040F00200444908600846006800F00200F0
:10420000009000BF00BF00BF3F482038006840F466
:1042100080503D49203908600846006800F480500D
:10422000009000BF00BF00BF37481438006840F05E
:1042300004003549143908600846006800F004009D
:10424000009000BF00BF00BF0846006840F00800B3
:1042500008600846006800F00800009000BF00BF3A
:1042600000BF0846006840F010000860084600687B
:1042700000F01000009000BF00BF00BF08460068BB
:1042800040F0200008600846006800F02000009020
:1042900000BF00BF00BF0846006840F04000086053
:1042A0000846006800F04000009000BF00BF0D20ED
:1042B00001900220029001200390032004900C2022
:1042C000059001A91148FDF767FD4CF203700190BC
:1042D00001A90F48FDF760FD4FF68370019001A919
:1042E0000C48FDF759FD4FF63F00019001A90A481F
:1042F000FDF752FD48F23710019001A90748FDF77C
:104300004BFD06B010BD0000F444025800080258EE
:10431000000C0258001002580014025800180258ED
:1043200070B504460D4694F82C00022800D170BDEB
:10433000022084F82C0029462068FCF7CCFC0120E0
:1043400084F82C000020F2E770B504460D461646AE
:1043500094F82C00022800D170BD022084F82C00B3
:10436000324629462068FCF7BDFC2868022803D1A4
:10437000052084F82C0002E0012084F82C000020A5
:10438000EAE7000070B504460E4615460CB9012058
:1043900070BD94F8450028B9002084F844002046F8
:1043A00000F024F804F108012068FCF7EBFB31462B
:1043B000A2682068FCF726FC2946E36AD4E90102DA
:1043C000FCF7BCFBA168206850F8210040F0010018
:1043D000A268216841F822000348006840F00040CC
:1043E000014908600020D3E70040005210B586B0B4
:1043F000044600BF2048006840F480501E49086011
:104400000846006800F48050009000BF00BF00BF65
:1044100019480C30006840F0080017490C3108605A
:104420000846006800F00800009000BF00BF00BF11
:104430000846006840F0100008600846006800F078
:104440001000009000BF00BF4EF2B3700190022038
:10445000029001200390032004900C20059001A9F4
:104460000648FDF799FC4FF68070019001A90448B9
:10447000FDF792FC06B010BDD4440258000C02585F
:1044800000100258042808D14FF0E021096941F0DA
:1044900004014FF0E022116107E04FF0E0210969CB
:1044A00021F004014FF0E0221161704770B504461D
:1044B0002546681EB0F1807F01D301200FE0681E01
:1044C0004FF0E02148610F214FF0FF3005F080F9F7
:1044D00000204FF0E021886107200861002070BDB6
:1044E00010B504460CB9012010BD94F83D0028B960
:1044F000002084F83C00204600F00CF8022084F8EC
:104500003D00211D206804F033FA012084F83D00AD
:104510000020E9E7704701460868C06840F00100E4
:104520000A68D0600868008840F001000A681080BE
:10453000002070477047704701460022002391F821
:10454000792091F87A3042EA030070472DE9F04172
:1045500004462068C569206807682068866805F0F9
:104560000F08B8F1000F0DD105F0200050B107F091
:10457000200010B906F0805020B1204604F067FBFF
:10458000BDE8F081B8F1000F72D05D48304018B935
:1045900007F4907000287AD005F0010048B107F4C4
:1045A000807030B1012021680862E06F40F00100A6
:1045B000E06705F0020048B106F0010030B10220CA
:1045C00021680862E06F40F00400E06705F0040035
:1045D00048B106F0010030B1042021680862E06FA4
:1045E00040F00200E06705F0080078B107F0200015
:1045F00028B906F0805010B906F0010030B108204B
:1046000021680862E06F40F00800E067E06F70B377
:1046100005F0200040B107F0200010B906F08050EE
:1046200010B1204604F013FBE06F00F0080020B941
:104630002068806800F0400018B3204604F0E7FAD4
:104640002068806800F04000B8B12068806820F0E1
:10465000400021688860606F58B12A48616F086522
:10466000606FFDF713FB10B1606F016D88470DE0BF
:104670000DE02046FFF75FFF08E02046FFF75BFFF5
:1046800004E02046FFF757FF0020E06778E705F4D5
:10469000801078B106F4800060B14FF4801021687A
:1046A0000862202084F8790084F87A002046FFF719
:1046B00041FF65E705F0800048B107F0800010B9C0
:1046C00006F4000018B1204604F0D8FF58E705F0C2
:1046D000400030B107F0400018B1204604F0A7FABE
:1046E0004EE705F4000040B107F0804028B1206893
:1046F000006820F080402168086000BF40E70000AB
:1047000001000010F78B000810B504460CB9012019
:1047100010BDA06900B100E000BF94F8790028B98D
:10472000002084F87800204600F02AF8242084F83D
:1047300079002068006820F00100216808602046A8
:1047400004F0CAFA012800D1E2E7606B10B12046FC
:1047500004F0A2F92068406820F490402168486085
:104760002068806820F02A0021688860206800683E
:1047700040F0010021680860204604F002FAC7E713
:1047800010B586B004462149206888423BD100BF5D
:104790001F48006840F001001D4908600846006895
:1047A00000F00100009000BF00BF00BF18481030AB
:1047B000006840F010001649103108600846006893
:1047C00000F01000009000BF00BF4FF40070019097
:1047D00002200290012003900220049007200590FF
:1047E00001A90C48FDF7D8FA4FF48060019001A9A7
:1047F0000848FDF7D1FA2520FDF77DFE032211467A
:104800002520FDF788FE06B010BD00000010014015
:10481000E04402580000025810B5034693F87A00AD
:10482000202867D101B10AB9012010BD00BF93F85B
:104830007800012801D10220F7E7012083F87800F1
:1048400000BF5966A3F86820A3F86A2000BF9868E3
:10485000B0F5805F0AD1186920B940F2FF10A3F8C3
:104860006C001CE0FF20A3F86C0018E0986848B9C1
:10487000186918B9FF20A3F86C0010E07F20A3F896
:104880006C000CE09868B0F1805F08D1186918B925
:104890007F20A3F86C0002E03F20A3F86C0000BF6B
:1048A0000020D867222083F87A0000BF002083F818
:1048B000780000BF1868806840F001001C68A060A4
:1048C0001868006800F0005060B11868006840F493
:1048D00080701C6820601868806840F080501C68F8
:1048E000A06005E01868006840F490701C682060C3
:1048F00000209AE7022098E71D4A0168914236D1CC
:104900001C49098801F4004189BB1A49098801F44E
:10491000804171B1184909780A2903D00021154A4C
:10492000118024E01349098841F40041114A1180A3
:104930001DE0114909780D2906D10E49098841F475
:1049400080410C4A118012E00B490978094A12880B
:10495000C2F30D02094B995406490988491C054ABE
:10496000118011460988C72901DD00211180704797
:104970000010014010000024120000245001002407
:10498000704700BFFEE7000000B587B000BF2448B5
:10499000006840F00100224908600846006800F005
:1049A0000100019000BF00BF00BF0846006840F052
:1049B000040008600846006800F00400019000BF91
:1049C00000BF00BF0846006840F08000086008464D
:1049D000006800F08000019000BF00BF012002903D
:1049E00000200390022004900320059002A90D48A6
:1049F000FDF7D2F94FF400500290002003900120FF
:104A000004900320059002A90748FDF7C5F90C2082
:104A1000029002A90548FDF7BFF907B000BD0000EC
:104A2000E04402580000025800080258001C0258D6
:104A300070B5044600260D4805880D48006818B179
:104A4000204602F05FFF0FE0084840884543002100
:104A5000084602F035FD02F017FF002602E0054986
:104A60000C80761CAE42FAD370BD000018030024FF
:104A7000300400240000086010B504465C488471CE
:104A80005C48006850B1204602F066FF5948C08A71
:104A9000574908805748008B488010BD002C51D1E1
:104AA000F020534908804FF4A07048800846808861
:104AB00049F24131884205D04D48808845F2103195
:104AC000884214D12C204A4908812A2048812B2071
:104AD00088810846808845F21031884206D14FF41B
:104AE000A070434908804FF4F07048807BE0404854
:104AF000808845F21051884210D14FF430503C4923
:104B000008814FF4285048814FF42C5088814FF48D
:104B1000F07008804FF44870488064E03448808822
:104B200041F6631188425ED12C20314908812B2047
:104B300048812A2088814FF4F07008804FF4487033
:104B4000488050E04FF4A07029490880F020488048
:104B50000846808849F24131884205D0244880883F
:104B600045F21031884207D12C20214908812A20A2
:104B700048812B20888129E01D48808845F210510A
:104B8000884210D14FF43050194908814FF4285011
:104B900048814FF42C5088814FF4487008804FF4BE
:104BA000F070488012E01248808841F66311884214
:104BB0000CD12C200E4908812A2048812B20888185
:104BC0004FF4487008804FF4F0704880084880889F
:104BD00045F21031884206D14FF4F0700449088044
:104BE0004FF4A0704880002002F030FB00BF54E773
:104BF000180300243004002470B504460D46164600
:104C00004348006828B132462946204602F0BAFEE1
:104C100070BD4048808849F24131884205D03D4806
:104C2000808845F21031884214D13A49488902F00F
:104C30001FFE201202F010FEE0B202F00DFE354918
:104C4000888902F015FE281202F006FEE8B202F092
:104C500003FE54E02F48808845F21051884220D14D
:104C60002C49488902F004FE201202F0F5FD294982
:104C70004989491C88B202F0FBFDE0B202F0ECFD6C
:104C80002449888902F0F4FD281202F0E5FD21494B
:104C90008989491C88B202F0EBFDE8B202F0DCFD24
:104CA0002DE01C48808841F66311884227D11948BD
:104CB000807920B917480088401E001B84B215492E
:104CC000488902F0D5FD201202F0C6FDE0B202F0E4
:104CD000C3FD201202F0C0FDE0B202F0BDFD0D499F
:104CE000888902F0C5FD281202F0B6FDE8B202F094
:104CF000B3FD281202F0B0FDE8B202F0ADFD0548A8
:104D0000008905490880891C0E8000BF80E70000EB
:104D10003004002418030024FEFF076000B595B09E
:104D200003F050F9FE4988800846808818B102F0E7
:104D3000F5FE02F0E4B900BFFA48006840F0020056
:104D4000F84908600846006800F00200019000BFC2
:104D500000BF20201090012011901290032013908A
:104D600010A9F148FDF718F802F00AFAEF48F049E7
:104D70000860F0484860002088600021EC48C1606D
:104D800001611021416100218161C16101624FF423
:104D900080514162002181624FF48041C162002153
:104DA000016341634FF48011816311200990002059
:104DB0000A9055200B9000200F90152002900020A3
:104DC0000390152004900020089002AA09A9D84851
:104DD000FFF7D8FA322004F023FDD32002F048FD7B
:104DE00002F002FACE49888002F0FEF9CC498880B0
:104DF00002F0FAF9CA498880084680884FF6FF71A8
:104E000001EA0020C649888002F0EEF9C449898889
:104E10000843C34988800846808849F24131884266
:104E200078D0D42002F024FD02F0DEF9BC4988805D
:104E300002F0DAF9BA49888002F0D6F9B8498880D8
:104E4000084680884FF6FF7101EA0020B449888047
:104E500002F0CAF9B24989880843B14988800846F6
:104E6000808845F21031884254D04FF45A4002F005
:104E7000FFFC02F0B9F9AA4988804FF45B4002F0C8
:104E8000F7FC02F0B1F9A6498880084680884FF601
:104E9000FF7101EA0020A24988804FF45C4002F0D3
:104EA000E7FC02F0A1F99E49898808439C49888063
:104EB00008468088B0F5004F02D145F21050888036
:104EC0009748808845F21051884223D0A12002F0F3
:104ED000CFFC02F089F99249888002F085F9904967
:104EE0008880084680884FF6FF7101EA00208C49CF
:104EF000888002F079F98A4989880843884988803E
:104F00000846808845F26171884203D141F66310FA
:104F1000834988808248808849F2413188427CD127
:104F2000CF2002F0A5FC002002F096FCC12002F088
:104F300093FC302002F090FCED2002F099FC6420FC
:104F400002F08AFC032002F087FC122002F084FCAD
:104F5000812002F081FCE82002F08AFC852002F02A
:104F60007BFC102002F078FC7A2002F075FCCB204C
:104F700002F07EFC392002F06FFC2C2002F06CFC69
:104F8000002002F069FC342002F066FC022002F0EE
:104F900063FCF72002F06CFC202002F05DFCEA20AC
:104FA00002F066FC002002F057FC002002F054FCE6
:104FB000C02002F05DFC1B2002F04EFCC12002F07C
:104FC00057FC012002F048FCC52002F051FC3020C3
:104FD00002F042FC302002F03FFCC72002F048FC07
:104FE000B72002F039FC362002F042FC482002F0E3
:104FF00033FC3A2002F03CFC552002F02DFCB1209D
:1050000002F036FC002002F027FC1A2002F024FCFB
:10501000B62002F02DFC0A2000E0A5E002F01CFC06
:10502000A22002F019FCF22002F022FC002002F083
:1050300013FC262002F01CFC012002F00DFCE020F5
:1050400002F016FC0F2002F007FC2A2002F004FCFC
:10505000282002F001FC082002F0FEFB0E2002F0E6
:10506000FBFB082002F0F8FB542002F0F5FBA9201E
:1050700002F0F2FB432002F0EFFB0A2002F0ECFB0F
:105080000F2002F0E9FB002002F0E6FB002002F016
:10509000E3FB002002F0E0FB002002F0DDFBE1205A
:1050A00002F0E6FB002002F0D7FB152002F0D4FB53
:1050B000172002F0D1FB072002F0CEFB112002F0F6
:1050C000CBFB062002F0C8FB2B2002F0C5FB5620CC
:1050D00002F0C2FB3C2002F0BFFB052002F0BCFB4B
:1050E000102002F0B9FB0F2002F0B6FB3F2002F0C7
:1050F000B3FB3F2002F0B0FB0F2002F0ADFB2B20F2
:1051000002F0B6FB002002F0A7FB002002F0A4FB97
:10511000012002F0A1FB3F2002F09EFB2A200BE0C1
:1051200018030024E04402580004025800400052D2
:10513000CC0200240441005202F09AFB002002F04D
:105140008BFB002002F088FB002002F085FBEF20A3
:1051500002F082FB112002F08BFB782004F060FB50
:10516000292002F085FBE4E5FE48808845F21031F5
:10517000884240F07C87ED2002F07AFB012002F0AB
:105180006BFBFE2002F068FBEE2002F071FBDE20DC
:1051900002F062FB212002F05FFBF12002F068FBCD
:1051A000012002F059FBDF2002F062FB102002F028
:1051B00053FBC42002F05CFB8F2002F04DFBC620A5
:1051C00002F056FB002002F047FBE22002F044FB15
:1051D000E22002F041FBE22002F03EFBBF2002F0A1
:1051E00047FBAA2002F038FBB02002F041FB0D2063
:1051F00002F032FB002002F02FFB0D2002F02CFB0E
:10520000002002F029FB112002F026FB002002F012
:1052100023FB192002F020FB002002F01DFB2120BF
:1052200002F01AFB002002F017FB2D2002F014FB05
:10523000002002F011FB3D2002F00EFB002002F0E6
:105240000BFB5D2002F008FB002002F005FB5D2057
:1052500002F002FB002002F0FFFAB12002F008FB8E
:10526000802002F0F9FA002002F0F6FA8B2002F01A
:10527000F3FA002002F0F0FA962002F0EDFA002096
:1052800002F0EAFAB22002F0F3FA002002F0E4FAA7
:10529000002002F0E1FA022002F0DEFA002002F023
:1052A000DBFA032002F0D8FA002002F0D5FAB3208E
:1052B00002F0DEFA002002F0CFFA002002F0CCFA71
:1052C000002002F0C9FA002002F0C6FA002002F025
:1052D000C3FA002002F0C0FA002002F0BDFA00205C
:1052E00002F0BAFA002002F0B7FA002002F0B4FA95
:1052F000002002F0B1FA002002F0AEFA002002F025
:10530000ABFA002002F0A8FA002002F0A5FA002073
:1053100002F0A2FA002002F09FFA002002F09CFAAC
:10532000002002F099FA002002F096FA002002F024
:1053300093FA002002F090FA002002F08DFA00208B
:1053400002F08AFAB42002F093FA8B2002F084FA79
:10535000002002F081FA962002F07EFA002002F08E
:105360007BFAA12002F078FA002002F075FAB5204D
:1053700002F07EFA022002F06FFA002002F06CFACE
:10538000032002F069FA002002F066FA042002F01D
:1053900063FA002002F060FAB62002F069FA0020F9
:1053A00002F05AFA002002F057FAB72002F060FA31
:1053B000002002F051FA002002F04EFA3F2002F0E5
:1053C0004BFA002002F048FA5E2002F045FA002075
:1053D00002F042FA642002F03FFA002002F03CFAA8
:1053E0008C2002F039FA002002F036FAAC2002F0EC
:1053F00033FA002002F030FADC2002F02DFA00200F
:1054000002F02AFA702002F027FA002002F024FAB3
:10541000902002F021FA002002F01EFAEB2002F0A8
:105420001BFA002002F018FADC2002F015FA002026
:1054300002F012FAB82002F01BFA002002F00CFA77
:10544000002002F009FA002002F006FA002002F023
:1054500003FA002002F000FA002002F0FDF900201B
:1054600002F0FAF9002002F0F7F9BA2002F000FA8F
:10547000242002F0F1F9002002F0EEF9002002F001
:10548000EBF9002002F0E8F9C12002F0F1F9202048
:1054900002F0E2F9002002F0DFF9542002F0DCF91A
:1054A000002002F0D9F9FF2002F0D6F9002002F026
:1054B000D3F9C22002F0DCF90A2002F0CDF9002075
:1054C00002F0CAF9042002F0C7F9002002F0C4F982
:1054D000C32002F0CDF93C2002F0BEF9002002F01A
:1054E000BBF93A2002F0B8F9002002F0B5F93920F2
:1054F00002F0B2F9002002F0AFF9372002F0ACF967
:10550000002002F0A9F93C2002F0A6F9002002F0E8
:10551000A3F9362002F0A0F9002002F09DF9322014
:1055200002F09AF9002002F097F92F2002F094F986
:10553000002002F091F92C2002F08EF9002002F0F8
:105540008BF9292002F088F9002002F085F9262045
:1055500002F082F9002002F07FF9242002F07CF9A9
:10556000002001E01803002402F076F9242002F064
:1055700073F9002002F070F9232002F06DF9002089
:1055800002F06AF93C2002F067F9002002F064F9A9
:10559000362002F061F9002002F05EF9322002F0BC
:1055A0005BF9002002F058F92F2002F055F9002095
:1055B00002F052F92C2002F04FF9002002F04CF9D1
:1055C000292002F049F9002002F046F9262002F0D5
:1055D00043F9002002F040F9242002F03DF90020B8
:1055E00002F03AF9242002F037F9002002F034F9F1
:1055F000232002F031F9002002F02EF9C42002F03D
:1056000037F9622002F028F9002002F025F9052080
:1056100002F022F9002002F01FF9842002F01CF9A8
:10562000002002F019F9F02002F016F9002002F033
:1056300013F9182002F010F9002002F00DF9A4204F
:1056400002F00AF9002002F007F9182002F004F92C
:10565000002002F001F9502002F0FEF8002002F0D4
:10566000FBF80C2002F0F8F8002002F0F5F8172003
:1056700002F0F2F8002002F0EFF8952002F0ECF8CA
:10568000002002F0E9F8F32002F0E6F8002002F032
:10569000E3F8E62002F0E0F8002002F0DDF8C52093
:1056A00002F0E6F8322002F0D7F8002002F0D4F839
:1056B000442002F0D1F8002002F0CEF8652002F07C
:1056C000CBF8002002F0C8F8762002F0C5F80020E0
:1056D00002F0C2F8882002F0BFF8002002F0BCF807
:1056E000C62002F0C5F8202002F0B6F8002002F033
:1056F000B3F8172002F0B0F8002002F0ADF8012056
:1057000002F0AAF8002002F0A7F8C72002F0B0F8D3
:10571000002002F0A1F8002002F09EF8002002F024
:105720009BF8002002F098F8C82002F0A1F80020B1
:1057300002F092F8002002F08FF8002002F08CF8BE
:10574000002002F089F8C92002F092F8002002F04F
:1057500083F8002002F080F8002002F07DF800209D
:1057600002F07AF8002002F077F8002002F074F8D6
:10577000002002F071F8002002F06EF8002002F024
:105780006BF8002002F068F8002002F065F80020B5
:1057900002F062F8002002F05FF8002002F05CF8EE
:1057A000002002F059F8002002F056F8E02002F044
:1057B0005FF8162002F050F8002002F04DF81C208F
:1057C00002F04AF8002002F047F8212002F044F8E5
:1057D000002002F041F8362002F03EF8002002F0EE
:1057E0003BF8462002F038F8002002F035F852204D
:1057F00002F032F8002002F02FF8642002F02CF8BA
:10580000002002F029F87A2002F026F8002002F0A9
:1058100023F88B2002F020F8002002F01DF89920D8
:1058200002F01AF8002002F017F8A82002F014F88D
:10583000002002F011F8B92002F00EF8002002F06A
:105840000BF8C42002F008F8002002F005F8CA2086
:1058500002F002F8002001F0FFFFD22001F0FCFF6F
:10586000002001F0F9FFD92001F0F6FF002001F03F
:10587000F3FFE02001F0F0FF002001F0EDFFF32046
:1058800001F0EAFF002001F0E7FFE12001F0F0FF66
:10589000162001F0E1FF002001F0DEFF1C2001F0E6
:1058A000DBFF002001F0D8FF222001F0D5FF00200F
:1058B00001F0D2FF362001F0CFFF002001F0CCFF35
:1058C000452001F0C9FF002001F0C6FF522001F081
:1058D000C3FF002001F0C0FF642001F0BDFF0020E5
:1058E00001F0BAFF7A2001F0B7FF002001F0B4FF09
:1058F0008B2001F0B1FF002001F0AEFF992001F0F4
:10590000ABFF002001F0A8FFA82001F0A5FF0020B8
:1059100001F0A2FFB92001F09FFF002001F09CFFE1
:10592000C42001F099FF002001F096FFCA2001F089
:1059300093FF002001F090FFD22001F08DFF0020A6
:1059400001F08AFFD82001F087FF002001F084FFDA
:10595000E02001F081FF002001F07EFFF32001F044
:105960007BFF002001F078FFE22001F081FF05209D
:1059700001F072FF002001F06FFF0B2001F06CFFBF
:10598000002001F069FF1B2001F066FF002001F0FC
:1059900063FF342001F060FF002001F05DFF442030
:1059A00001F05AFF002001F057FF4F2001F054FF93
:1059B000002001F051FF612001F04EFF002001F0B6
:1059C0004BFF792001F048FF002001F045FF8820BF
:1059D00001F042FF002001F03FFF972001F03CFF63
:1059E000002001F039FFA62001F036FF002001F071
:1059F00033FFB72001F030FF002001F02DFFC2205F
:105A000001F02AFF002001F027FFC72001F024FF4A
:105A1000002001F021FFD12001F01EFF002001F045
:105A20001BFFD62001F018FF002001F015FFDD203C
:105A300001F012FF002001F00FFFF32001F00CFF36
:105A4000002001F009FFE32001F012FF052001F022
:105A500003FF002001F000FF0A2001F0FDFE0020FE
:105A600001F0FAFE1C2001F0F7FE002001F0F4FE28
:105A7000332001F0F1FE002001F0EEFE442001F0A1
:105A8000EBFE002001F0E8FE502001F0E5FE0020D2
:105A900001F0E2FE622001F0DFFE002001F0DCFEFA
:105AA000782001F0D9FE002001F0D6FE882001F018
:105AB000D3FE002001F0D0FE972001F0CDFE0020A3
:105AC00001F0CAFEA62001F0C7FE002001F0C4FECE
:105AD000B72001F0C1FE002001F0BEFEC22001F09F
